{
  "contractName": "DataShare",
  "abi": [
    {
      "inputs": [],
      "stateMutability": "nonpayable",
      "type": "constructor"
    },
    {
      "inputs": [
        {
          "internalType": "string",
          "name": "_name",
          "type": "string"
        }
      ],
      "name": "setUser",
      "outputs": [],
      "stateMutability": "nonpayable",
      "type": "function"
    },
    {
      "inputs": [],
      "name": "getSelfInfo",
      "outputs": [
        {
          "internalType": "string",
          "name": "",
          "type": "string"
        },
        {
          "internalType": "uint256",
          "name": "",
          "type": "uint256"
        },
        {
          "internalType": "bool",
          "name": "",
          "type": "bool"
        }
      ],
      "stateMutability": "view",
      "type": "function"
    },
    {
      "inputs": [
        {
          "internalType": "string",
          "name": "_name",
          "type": "string"
        },
        {
          "internalType": "string",
          "name": "_category",
          "type": "string"
        },
        {
          "internalType": "string",
          "name": "_description",
          "type": "string"
        },
        {
          "internalType": "string",
          "name": "_dataLink",
          "type": "string"
        },
        {
          "internalType": "uint256",
          "name": "_point",
          "type": "uint256"
        }
      ],
      "name": "uploadData",
      "outputs": [],
      "stateMutability": "nonpayable",
      "type": "function"
    },
    {
      "inputs": [
        {
          "internalType": "uint256",
          "name": "_dataSetId",
          "type": "uint256"
        }
      ],
      "name": "checkHasDownload",
      "outputs": [
        {
          "internalType": "enum DataShare.Relation",
          "name": "",
          "type": "uint8"
        }
      ],
      "stateMutability": "view",
      "type": "function"
    },
    {
      "inputs": [
        {
          "internalType": "uint256",
          "name": "_dataSetId",
          "type": "uint256"
        },
        {
          "internalType": "uint256",
          "name": "_point",
          "type": "uint256"
        }
      ],
      "name": "addDownloads",
      "outputs": [],
      "stateMutability": "nonpayable",
      "type": "function"
    },
    {
      "inputs": [
        {
          "internalType": "uint256",
          "name": "_dataSetId",
          "type": "uint256"
        }
      ],
      "name": "getDataSet",
      "outputs": [
        {
          "internalType": "string",
          "name": "",
          "type": "string"
        },
        {
          "internalType": "string",
          "name": "",
          "type": "string"
        },
        {
          "internalType": "string",
          "name": "",
          "type": "string"
        },
        {
          "internalType": "string",
          "name": "",
          "type": "string"
        },
        {
          "internalType": "uint256",
          "name": "",
          "type": "uint256"
        },
        {
          "internalType": "uint256",
          "name": "",
          "type": "uint256"
        },
        {
          "internalType": "uint256",
          "name": "",
          "type": "uint256"
        },
        {
          "internalType": "uint256",
          "name": "",
          "type": "uint256"
        }
      ],
      "stateMutability": "view",
      "type": "function"
    },
    {
      "inputs": [
        {
          "internalType": "uint256",
          "name": "_dataSetId",
          "type": "uint256"
        }
      ],
      "name": "getHash",
      "outputs": [
        {
          "internalType": "string",
          "name": "",
          "type": "string"
        }
      ],
      "stateMutability": "view",
      "type": "function"
    },
    {
      "inputs": [
        {
          "internalType": "uint256",
          "name": "_dataSetId",
          "type": "uint256"
        }
      ],
      "name": "getDataName",
      "outputs": [
        {
          "internalType": "string",
          "name": "",
          "type": "string"
        }
      ],
      "stateMutability": "view",
      "type": "function"
    },
    {
      "inputs": [],
      "name": "getIndex",
      "outputs": [
        {
          "internalType": "uint256",
          "name": "",
          "type": "uint256"
        }
      ],
      "stateMutability": "view",
      "type": "function"
    },
    {
      "inputs": [],
      "name": "getUserAllUploadId",
      "outputs": [
        {
          "internalType": "uint256[]",
          "name": "",
          "type": "uint256[]"
        }
      ],
      "stateMutability": "view",
      "type": "function"
    },
    {
      "inputs": [],
      "name": "getUserAllDownloadId",
      "outputs": [
        {
          "internalType": "uint256[]",
          "name": "",
          "type": "uint256[]"
        }
      ],
      "stateMutability": "view",
      "type": "function"
    },
    {
      "inputs": [
        {
          "internalType": "string",
          "name": "_category",
          "type": "string"
        }
      ],
      "name": "getDataIdByCategory",
      "outputs": [
        {
          "internalType": "uint256[]",
          "name": "",
          "type": "uint256[]"
        }
      ],
      "stateMutability": "view",
      "type": "function"
    },
    {
      "inputs": [
        {
          "internalType": "uint256",
          "name": "_dataSetId",
          "type": "uint256"
        },
        {
          "internalType": "bool",
          "name": "isGood",
          "type": "bool"
        }
      ],
      "name": "setEvaluation",
      "outputs": [],
      "stateMutability": "nonpayable",
      "type": "function"
    }
  ],
  "bytecode": "0x608060405234801561001057600080fd5b50600080556112fb806100246000396000f3fe608060405234801561001057600080fd5b50600436106100cf5760003560e01c806381045ead1161008c578063c6642f8a11610066578063c6642f8a146101c0578063d0020fad146101d3578063eef2d4ce146101e6578063f2f8cfd3146101f9576100cf565b806381045ead1461017c578063bdaac05614610191578063c56ad148146101b8576100cf565b80631a5f9f9b146100d457806322cc360c146100e95780636b2fafa9146101125780637a0cb9f6146101325780637d24aff8146101455780637e8e773314610165575b600080fd5b6100e76100e236600461102e565b610201565b005b6100fc6100f7366004611016565b6102aa565b604051610109919061110e565b60405180910390f35b610125610120366004611016565b6102ce565b6040516101099190611136565b6100e7610140366004611061565b6103c5565b610158610153366004610f2b565b610498565b60405161010991906110ca565b61016d610508565b604051610109939291906111c8565b6101846105c9565b60405161010991906111f2565b6101a461019f366004611016565b6105cf565b604051610109989796959493929190611150565b610158610980565b6101256101ce366004611016565b6109e1565b6100e76101e1366004610f2b565b610a7c565b6100e76101f4366004610f66565b610b22565b610158610db2565b600161020c836102aa565b600381111561022b57634e487b7160e01b600052602160045260246000fd5b14610235576102a6565b801561025e5760008281526001602052604081206009018054916102588361127e565b91905055505b6000828152600160205260408120600a0180549161027b8361127e565b90915550503360009081526003602090815260408083208584529091529020805460ff191660021790555b5050565b33600090815260036020908152604080832084845290915290205460ff165b919050565b606060006102db836102aa565b60038111156102fa57634e487b7160e01b600052602160045260246000fd5b141561032457506040805180820190915260078152663ab735b737bbb760c91b60208201526102c9565b6000828152600160205260409020600601805461034090611243565b80601f016020809104026020016040519081016040528092919081815260200182805461036c90611243565b80156103b95780601f1061038e576101008083540402835291602001916103b9565b820191906000526020600020905b81548152906001019060200180831161039c57829003601f168201915b505050505090506102c9565b60006103d0836102aa565b60038111156103ef57634e487b7160e01b600052602160045260246000fd5b146103f9576102a6565b60008281526001602052604081206007018054916104168361127e565b90915550503360008181526003602090815260408083208684528252808320805460ff191660019081179091559383526004825280832080548086018255908452828420018690558583528382528083208401546001600160a01b0316835260059091528120909101805483929061048f9084906111fb565b90915550505050565b60606006826040516104aa91906110ae565b90815260408051918290036020908101832080548083028501830190935282845291908301828280156104fc57602002820191906000526020600020905b8154815260200190600101908083116104e8575b50505050509050919050565b3360009081526005602052604081206001810154600282015482546060949384939092909160ff90911690839061053e90611243565b80601f016020809104026020016040519081016040528092919081815260200182805461056a90611243565b80156105b75780601f1061058c576101008083540402835291602001916105b7565b820191906000526020600020905b81548152906001019060200180831161059a57829003601f168201915b50505050509250925092509250909192565b60005490565b6060806060806000806000806000600160008b815260200190815260200160002060405180610160016040529081600082015481526020016001820160009054906101000a90046001600160a01b03166001600160a01b03166001600160a01b0316815260200160028201805461064590611243565b80601f016020809104026020016040519081016040528092919081815260200182805461067190611243565b80156106be5780601f10610693576101008083540402835291602001916106be565b820191906000526020600020905b8154815290600101906020018083116106a157829003601f168201915b505050505081526020016003820180546106d790611243565b80601f016020809104026020016040519081016040528092919081815260200182805461070390611243565b80156107505780601f1061072557610100808354040283529160200191610750565b820191906000526020600020905b81548152906001019060200180831161073357829003601f168201915b5050505050815260200160048201805461076990611243565b80601f016020809104026020016040519081016040528092919081815260200182805461079590611243565b80156107e25780601f106107b7576101008083540402835291602001916107e2565b820191906000526020600020905b8154815290600101906020018083116107c557829003601f168201915b505050505081526020016005820180546107fb90611243565b80601f016020809104026020016040519081016040528092919081815260200182805461082790611243565b80156108745780601f1061084957610100808354040283529160200191610874565b820191906000526020600020905b81548152906001019060200180831161085757829003601f168201915b5050505050815260200160068201805461088d90611243565b80601f01602080910402602001604051908101604052809291908181526020018280546108b990611243565b80156109065780601f106108db57610100808354040283529160200191610906565b820191906000526020600020905b8154815290600101906020018083116108e957829003601f168201915b50505050508152602001600782015481526020016008820154815260200160098201548152602001600a8201548152505090508060400151816060015182608001518360a001518460e001518561010001518661012001518761014001519850985098509850985098509850985050919395975091939597565b336000908152600460209081526040918290208054835181840281018401909452808452606093928301828280156109d757602002820191906000526020600020905b8154815260200190600101908083116109c3575b5050505050905090565b6000818152600160205260409020600201805460609190610a0190611243565b80601f0160208091040260200160405190810160405280929190818152602001828054610a2d90611243565b80156104fc5780601f10610a4f576101008083540402835291602001916104fc565b820191906000526020600020905b815481529060010190602001808311610a5d5750939695505050505050565b3360009081526005602052604090206002015460ff1615610abd573360009081526005602090815260409091208251610ab792840190610e11565b50610b1f565b6040805160608101825282815260006020808301829052600183850152338252600581529290208151805192939192610af99284920190610e11565b50602082015160018201556040909101516002909101805460ff19169115159190911790555b50565b600080549080610b318361127e565b909155505060408051610160810182526000805482523360208084018290528385018a9052606084018990526080840188905290825260059052918220805460a083019190610b7f90611243565b80601f0160208091040260200160405190810160405280929190818152602001828054610bab90611243565b8015610bf85780601f10610bcd57610100808354040283529160200191610bf8565b820191906000526020600020905b815481529060010190602001808311610bdb57829003601f168201915b50505091835250506020808201869052600060408084018290524260608501526080840182905260a090930181905280548152600180835290839020845181558483015191810180546001600160a01b0319166001600160a01b03909316929092179091559183015180519394508493610c789260028501920190610e11565b5060608201518051610c94916003840191602090910190610e11565b5060808201518051610cb0916004840191602090910190610e11565b5060a08201518051610ccc916005840191602090910190610e11565b5060c08201518051610ce8916006840191602090910190610e11565b5060e082015181600701556101008201518160080155610120820151816009015561014082015181600a0155905050600685604051610d2791906110ae565b90815260408051602092819003830190206000805482546001808201855593835285832001553380825260028552838220825481548086018355918452868420909101558082526003808652848320835484528652848320805460ff1916909117905581526005909352908220018054849290610da59084906111fb565b9091555050505050505050565b336000908152600260209081526040918290208054835181840281018401909452808452606093928301828280156109d757602002820191906000526020600020908154815260200190600101908083116109c3575050505050905090565b828054610e1d90611243565b90600052602060002090601f016020900481019282610e3f5760008555610e85565b82601f10610e5857805160ff1916838001178555610e85565b82800160010185558215610e85579182015b82811115610e85578251825591602001919060010190610e6a565b50610e91929150610e95565b5090565b5b80821115610e915760008155600101610e96565b600082601f830112610eba578081fd5b813567ffffffffffffffff80821115610ed557610ed56112af565b604051601f8301601f191681016020018281118282101715610ef957610ef96112af565b604052828152848301602001861015610f10578384fd5b82602086016020830137918201602001929092529392505050565b600060208284031215610f3c578081fd5b813567ffffffffffffffff811115610f52578182fd5b610f5e84828501610eaa565b949350505050565b600080600080600060a08688031215610f7d578081fd5b853567ffffffffffffffff80821115610f94578283fd5b610fa089838a01610eaa565b96506020880135915080821115610fb5578283fd5b610fc189838a01610eaa565b95506040880135915080821115610fd6578283fd5b610fe289838a01610eaa565b94506060880135915080821115610ff7578283fd5b5061100488828901610eaa565b95989497509295608001359392505050565b600060208284031215611027578081fd5b5035919050565b60008060408385031215611040578182fd5b8235915060208301358015158114611056578182fd5b809150509250929050565b60008060408385031215611073578182fd5b50508035926020909101359150565b6000815180845261109a816020860160208601611213565b601f01601f19169290920160200192915050565b600082516110c0818460208701611213565b9190910192915050565b6020808252825182820181905260009190848201906040850190845b81811015611102578351835292840192918401916001016110e6565b50909695505050505050565b602081016004831061113057634e487b7160e01b600052602160045260246000fd5b91905290565b6000602082526111496020830184611082565b9392505050565b60006101008083526111648184018c611082565b90508281036020840152611178818b611082565b9050828103604084015261118c818a611082565b905082810360608401526111a08189611082565b9150508560808301528460a08301528360c08301528260e08301529998505050505050505050565b6000606082526111db6060830186611082565b602083019490945250901515604090910152919050565b90815260200190565b6000821982111561120e5761120e611299565b500190565b60005b8381101561122e578181015183820152602001611216565b8381111561123d576000848401525b50505050565b60028104600182168061125757607f821691505b6020821081141561127857634e487b7160e01b600052602260045260246000fd5b50919050565b600060001982141561129257611292611299565b5060010190565b634e487b7160e01b600052601160045260246000fd5b634e487b7160e01b600052604160045260246000fdfea2646970667358221220bc6ece236cfda5e9b50de5bfa877f2d9ec2af62222305e1b97abe5e02aed654b64736f6c63430008000033",
  "immutableReferences": {},
  "source": "// SPDX-License-Identifier: MIT\npragma solidity >=0.4.21;\n\ncontract DataShare{\n    enum Relation { independent, downloaded, evaluated, owner }     //\n\n    uint dataSetIndex;\n    mapping(uint => DataSet) dataSetCollection;       //id\n    mapping(address => uint[]) uperAllUpload;  // => id\n    mapping(address => mapping(uint => Relation)) dataStatus;    //\n    mapping(address => uint[]) userDownload;    //\n    mapping(address => UserInfo) users;      //\n    mapping(string => uint[]) dataByCategory;       //\n\n    struct DataSet{\n        uint id;\n        address addr;\n        string name;\n        string category;        //\n        string description;     //\n        string uper;            //\n        string dataLink;        //\n        uint downloads;         //\n        uint uploadTime;        //\n        uint favorable;         //\n        uint evaluationCount;   //\n    }\n\n    struct UserInfo{\n        string name;\n        uint point;\n        bool hasExist;\n    }\n\n    constructor(){\n        dataSetIndex = 0;\n    }\n\n    /**\n      * User \n      * \n      */\n    function setUser(string memory _name) public{\n        if(users[msg.sender].hasExist){\n            users[msg.sender].name = _name;\n        }\n        else{\n            users[msg.sender] = UserInfo(_name, 0, true);\n        }\n    }\n\n    /** \n      *  \n      * \n      */\n    function getSelfInfo() public view returns (string memory, uint, bool){\n        return (users[msg.sender].name, users[msg.sender].point, users[msg.sender].hasExist);\n    }\n\n    /**\n      * \n      * hash\n      */\n    function uploadData(string memory _name, string memory _category, string memory _description, string memory _dataLink, uint _point) public{\n        dataSetIndex++;\n        DataSet memory dataset = DataSet(dataSetIndex, msg.sender, _name, _category, _description, users[msg.sender].name, _dataLink, 0, block.timestamp, 0, 0);\n        dataSetCollection[dataSetIndex] = dataset;\n        dataByCategory[_category].push(dataSetIndex);\n        uperAllUpload[msg.sender].push(dataSetIndex);\n        dataStatus[msg.sender][dataSetIndex] = Relation.owner;\n        users[msg.sender].point += _point;\n    }\n    \n    /*  */\n    function checkHasDownload(uint _dataSetId) public view returns (Relation){\n        return dataStatus[msg.sender][_dataSetId];\n    }\n\n    /**\n      * id\n      * id\n      */\n    function addDownloads(uint _dataSetId, uint _point) public{\n        if(checkHasDownload(_dataSetId) != Relation.independent){\n            return;\n        }\n        dataSetCollection[_dataSetId].downloads++;\n        dataStatus[msg.sender][_dataSetId] = Relation.downloaded;\n        userDownload[msg.sender].push(_dataSetId);\n        users[dataSetCollection[_dataSetId].addr].point += _point;\n    }\n    \n    /**\n      * \n      * id\n      * hash\n      */\n    function getDataSet(uint _dataSetId) public view returns (string memory, string memory, string memory, string memory, uint, uint, uint, uint){\n        DataSet memory dataset = dataSetCollection[_dataSetId];\n        return (dataset.name, dataset.category, dataset.description, dataset.uper, dataset.downloads, dataset.uploadTime, dataset.favorable, dataset.evaluationCount);\n    }\n\n    /*  */\n    function getHash(uint _dataSetId) public view returns (string memory){\n        if(checkHasDownload(_dataSetId) == Relation.independent){\n            return \"unknown\";\n        }\n        else{\n            return dataSetCollection[_dataSetId].dataLink;\n        }\n    }\n    \n    /*  */\n    function getDataName(uint _dataSetId) public view returns (string memory){\n        return dataSetCollection[_dataSetId].name;\n    }\n\n    /*  */\n    function getIndex() public view returns (uint){\n        return dataSetIndex;\n    }\n    \n    /* id */\n    function getUserAllUploadId() public view returns (uint[] memory){\n        return uperAllUpload[msg.sender];\n    }\n    \n    /* id */\n    function getUserAllDownloadId() public view returns (uint[] memory){\n        return userDownload[msg.sender];\n    }\n    \n    /* id */\n    function getDataIdByCategory(string memory _category) public view returns (uint[] memory){\n        return dataByCategory[_category];\n    }\n    \n    /*  */\n    function setEvaluation(uint _dataSetId, bool isGood) public{\n        if(checkHasDownload(_dataSetId) != Relation.downloaded){\n            return;\n        }\n        if(isGood){\n            dataSetCollection[_dataSetId].favorable++;\n        }\n        dataSetCollection[_dataSetId].evaluationCount++;\n        dataStatus[msg.sender][_dataSetId] = Relation.evaluated;\n    }\n}\n",
  "sourcePath": "/home/amar/DAPP/DataShare/contracts/DataShare.sol",
  "compiler": {
    "name": "solc",
    "version": "0.8.0+commit.c7dfd78e.Emscripten.clang"
  },
  "schemaVersion": "3.3.4",
  "updatedAt": "2021-04-12T14:33:30.127Z",
  "devdoc": {
    "kind": "dev",
    "methods": {},
    "version": 1
  },
  "userdoc": {
    "kind": "user",
    "methods": {
      "addDownloads(uint256,uint256)": {
        "notice": "id id"
      },
      "getDataSet(uint256)": {
        "notice": " id hash"
      },
      "getSelfInfo()": {
        "notice": "  "
      },
      "setUser(string)": {
        "notice": "User  "
      },
      "uploadData(string,string,string,string,uint256)": {
        "notice": " hash"
      }
    },
    "version": 1
  }
}