{
  "contractName": "DataShare",
  "abi": [
    {
      "inputs": [],
      "stateMutability": "nonpayable",
      "type": "constructor"
    },
    {
      "inputs": [
        {
          "internalType": "string",
          "name": "_name",
          "type": "string"
        }
      ],
      "name": "setUser",
      "outputs": [],
      "stateMutability": "nonpayable",
      "type": "function"
    },
    {
      "inputs": [],
      "name": "getSelfInfo",
      "outputs": [
        {
          "internalType": "string",
          "name": "",
          "type": "string"
        },
        {
          "internalType": "uint256",
          "name": "",
          "type": "uint256"
        },
        {
          "internalType": "bool",
          "name": "",
          "type": "bool"
        }
      ],
      "stateMutability": "view",
      "type": "function",
      "constant": true
    },
    {
      "inputs": [
        {
          "internalType": "string",
          "name": "_name",
          "type": "string"
        },
        {
          "internalType": "string",
          "name": "_category",
          "type": "string"
        },
        {
          "internalType": "string",
          "name": "_description",
          "type": "string"
        },
        {
          "internalType": "string",
          "name": "_dataLink",
          "type": "string"
        },
        {
          "internalType": "uint256",
          "name": "_point",
          "type": "uint256"
        }
      ],
      "name": "uploadData",
      "outputs": [],
      "stateMutability": "nonpayable",
      "type": "function"
    },
    {
      "inputs": [
        {
          "internalType": "uint256",
          "name": "_dataSetId",
          "type": "uint256"
        }
      ],
      "name": "checkHasDownload",
      "outputs": [
        {
          "internalType": "enum DataShare.Relation",
          "name": "",
          "type": "uint8"
        }
      ],
      "stateMutability": "view",
      "type": "function",
      "constant": true
    },
    {
      "inputs": [
        {
          "internalType": "uint256",
          "name": "_dataSetId",
          "type": "uint256"
        },
        {
          "internalType": "uint256",
          "name": "_point",
          "type": "uint256"
        }
      ],
      "name": "addDownloads",
      "outputs": [],
      "stateMutability": "nonpayable",
      "type": "function"
    },
    {
      "inputs": [
        {
          "internalType": "uint256",
          "name": "_dataSetId",
          "type": "uint256"
        }
      ],
      "name": "getDataSet",
      "outputs": [
        {
          "internalType": "string",
          "name": "",
          "type": "string"
        },
        {
          "internalType": "string",
          "name": "",
          "type": "string"
        },
        {
          "internalType": "string",
          "name": "",
          "type": "string"
        },
        {
          "internalType": "string",
          "name": "",
          "type": "string"
        },
        {
          "internalType": "string",
          "name": "",
          "type": "string"
        },
        {
          "internalType": "uint256",
          "name": "",
          "type": "uint256"
        },
        {
          "internalType": "uint256",
          "name": "",
          "type": "uint256"
        },
        {
          "internalType": "uint256",
          "name": "",
          "type": "uint256"
        },
        {
          "internalType": "uint256",
          "name": "",
          "type": "uint256"
        }
      ],
      "stateMutability": "view",
      "type": "function",
      "constant": true
    },
    {
      "inputs": [
        {
          "internalType": "uint256",
          "name": "_dataSetId",
          "type": "uint256"
        }
      ],
      "name": "getDataName",
      "outputs": [
        {
          "internalType": "string",
          "name": "",
          "type": "string"
        }
      ],
      "stateMutability": "view",
      "type": "function",
      "constant": true
    },
    {
      "inputs": [],
      "name": "getIndex",
      "outputs": [
        {
          "internalType": "uint256",
          "name": "",
          "type": "uint256"
        }
      ],
      "stateMutability": "view",
      "type": "function",
      "constant": true
    },
    {
      "inputs": [],
      "name": "getUserAllUploadId",
      "outputs": [
        {
          "internalType": "uint256[]",
          "name": "",
          "type": "uint256[]"
        }
      ],
      "stateMutability": "view",
      "type": "function",
      "constant": true
    },
    {
      "inputs": [],
      "name": "getUserAllDownloadId",
      "outputs": [
        {
          "internalType": "uint256[]",
          "name": "",
          "type": "uint256[]"
        }
      ],
      "stateMutability": "view",
      "type": "function",
      "constant": true
    },
    {
      "inputs": [
        {
          "internalType": "string",
          "name": "_category",
          "type": "string"
        }
      ],
      "name": "getDataIdByCategory",
      "outputs": [
        {
          "internalType": "uint256[]",
          "name": "",
          "type": "uint256[]"
        }
      ],
      "stateMutability": "view",
      "type": "function",
      "constant": true
    },
    {
      "inputs": [
        {
          "internalType": "uint256",
          "name": "_dataSetId",
          "type": "uint256"
        },
        {
          "internalType": "bool",
          "name": "isGood",
          "type": "bool"
        }
      ],
      "name": "setEvaluation",
      "outputs": [],
      "stateMutability": "nonpayable",
      "type": "function"
    }
  ],
  "bytecode": "0x608060405234801561001057600080fd5b506000805561118c806100246000396000f3fe608060405234801561001057600080fd5b50600436106100b45760003560e01c8063bdaac05611610071578063bdaac05614610156578063c56ad1481461017e578063c6642f8a14610186578063d0020fad146101a6578063eef2d4ce146101b9578063f2f8cfd3146101cc576100b4565b80631a5f9f9b146100b957806322cc360c146100ce5780637a0cb9f6146100f75780637d24aff81461010a5780637e8e77331461012a57806381045ead14610141575b600080fd5b6100cc6100c7366004610ea9565b6101d4565b005b6100e16100dc366004610e91565b610249565b6040516100ee9190610f89565b60405180910390f35b6100cc610105366004610edc565b610269565b61011d610118366004610da6565b610308565b6040516100ee9190610f45565b610132610378565b6040516100ee93929190611059565b610149610439565b6040516100ee9190611083565b610169610164366004610e91565b61043f565b6040516100ee99989796959493929190610fcb565b61011d6107fb565b610199610194366004610e91565b61085c565b6040516100ee9190610fb1565b6100cc6101b4366004610da6565b6108f7565b6100cc6101c7366004610de1565b61099d565b61011d610c2d565b80156101fd5760008281526001602052604081206009018054916101f78361110f565b91905055505b6000828152600160205260408120600a0180549161021a8361110f565b909155505033600090815260036020908152604080832094835293905291909120805460ff1916600217905550565b336000908152600360209081526040808320938352929052205460ff1690565b60008281526001602052604081206007018054916102868361110f565b90915550503360008181526003602090815260408083208684528252808320805460ff191660019081179091559383526004825280832080548086018255908452828420018690558583528382528083208401546001600160a01b031683526005909152812090910180548392906102ff90849061108c565b90915550505050565b606060068260405161031a9190610f29565b908152604080519182900360209081018320805480830285018301909352828452919083018282801561036c57602002820191906000526020600020905b815481526020019060010190808311610358575b50505050509050919050565b3360009081526005602052604081206001810154600282015482546060949384939092909160ff9091169083906103ae906110d4565b80601f01602080910402602001604051908101604052809291908181526020018280546103da906110d4565b80156104275780601f106103fc57610100808354040283529160200191610427565b820191906000526020600020905b81548152906001019060200180831161040a57829003601f168201915b50505050509250925092509250909192565b60005490565b60608060608060606000806000806000600160008c815260200190815260200160002060405180610160016040529081600082015481526020016001820160009054906101000a90046001600160a01b03166001600160a01b03166001600160a01b031681526020016002820180546104b7906110d4565b80601f01602080910402602001604051908101604052809291908181526020018280546104e3906110d4565b80156105305780601f1061050557610100808354040283529160200191610530565b820191906000526020600020905b81548152906001019060200180831161051357829003601f168201915b50505050508152602001600382018054610549906110d4565b80601f0160208091040260200160405190810160405280929190818152602001828054610575906110d4565b80156105c25780601f10610597576101008083540402835291602001916105c2565b820191906000526020600020905b8154815290600101906020018083116105a557829003601f168201915b505050505081526020016004820180546105db906110d4565b80601f0160208091040260200160405190810160405280929190818152602001828054610607906110d4565b80156106545780601f1061062957610100808354040283529160200191610654565b820191906000526020600020905b81548152906001019060200180831161063757829003601f168201915b5050505050815260200160058201805461066d906110d4565b80601f0160208091040260200160405190810160405280929190818152602001828054610699906110d4565b80156106e65780601f106106bb576101008083540402835291602001916106e6565b820191906000526020600020905b8154815290600101906020018083116106c957829003601f168201915b505050505081526020016006820180546106ff906110d4565b80601f016020809104026020016040519081016040528092919081815260200182805461072b906110d4565b80156107785780601f1061074d57610100808354040283529160200191610778565b820191906000526020600020905b81548152906001019060200180831161075b57829003601f168201915b50505050508152602001600782015481526020016008820154815260200160098201548152602001600a8201548152505090508060400151816060015182608001518360a001518460c001518560e00151866101000151876101200151886101400151995099509950995099509950995099509950509193959799909294969850565b3360009081526004602090815260409182902080548351818402810184019094528084526060939283018282801561085257602002820191906000526020600020905b81548152602001906001019080831161083e575b5050505050905090565b600081815260016020526040902060020180546060919061087c906110d4565b80601f01602080910402602001604051908101604052809291908181526020018280546108a8906110d4565b801561036c5780601f106108ca5761010080835404028352916020019161036c565b820191906000526020600020905b8154815290600101906020018083116108d85750939695505050505050565b3360009081526005602052604090206002015460ff161561093857336000908152600560209081526040909120825161093292840190610c8c565b5061099a565b60408051606081018252828152600060208083018290526001838501523382526005815292902081518051929391926109749284920190610c8c565b50602082015160018201556040909101516002909101805460ff19169115159190911790555b50565b6000805490806109ac8361110f565b909155505060408051610160810182526000805482523360208084018290528385018a9052606084018990526080840188905290825260059052918220805460a0830191906109fa906110d4565b80601f0160208091040260200160405190810160405280929190818152602001828054610a26906110d4565b8015610a735780601f10610a4857610100808354040283529160200191610a73565b820191906000526020600020905b815481529060010190602001808311610a5657829003601f168201915b50505091835250506020808201869052600060408084018290524260608501526080840182905260a090930181905280548152600180835290839020845181558483015191810180546001600160a01b0319166001600160a01b03909316929092179091559183015180519394508493610af39260028501920190610c8c565b5060608201518051610b0f916003840191602090910190610c8c565b5060808201518051610b2b916004840191602090910190610c8c565b5060a08201518051610b47916005840191602090910190610c8c565b5060c08201518051610b63916006840191602090910190610c8c565b5060e082015181600701556101008201518160080155610120820151816009015561014082015181600a0155905050600685604051610ba29190610f29565b90815260408051602092819003830190206000805482546001808201855593835285832001553380825260028552838220825481548086018355918452868420909101558082526003808652848320835484528652848320805460ff1916909117905581526005909352908220018054849290610c2090849061108c565b9091555050505050505050565b33600090815260026020908152604091829020805483518184028101840190945280845260609392830182828015610852576020028201919060005260206000209081548152602001906001019080831161083e575050505050905090565b828054610c98906110d4565b90600052602060002090601f016020900481019282610cba5760008555610d00565b82601f10610cd357805160ff1916838001178555610d00565b82800160010185558215610d00579182015b82811115610d00578251825591602001919060010190610ce5565b50610d0c929150610d10565b5090565b5b80821115610d0c5760008155600101610d11565b600082601f830112610d35578081fd5b813567ffffffffffffffff80821115610d5057610d50611140565b604051601f8301601f191681016020018281118282101715610d7457610d74611140565b604052828152848301602001861015610d8b578384fd5b82602086016020830137918201602001929092529392505050565b600060208284031215610db7578081fd5b813567ffffffffffffffff811115610dcd578182fd5b610dd984828501610d25565b949350505050565b600080600080600060a08688031215610df8578081fd5b853567ffffffffffffffff80821115610e0f578283fd5b610e1b89838a01610d25565b96506020880135915080821115610e30578283fd5b610e3c89838a01610d25565b95506040880135915080821115610e51578283fd5b610e5d89838a01610d25565b94506060880135915080821115610e72578283fd5b50610e7f88828901610d25565b95989497509295608001359392505050565b600060208284031215610ea2578081fd5b5035919050565b60008060408385031215610ebb578182fd5b8235915060208301358015158114610ed1578182fd5b809150509250929050565b60008060408385031215610eee578182fd5b50508035926020909101359150565b60008151808452610f158160208601602086016110a4565b601f01601f19169290920160200192915050565b60008251610f3b8184602087016110a4565b9190910192915050565b6020808252825182820181905260009190848201906040850190845b81811015610f7d57835183529284019291840191600101610f61565b50909695505050505050565b6020810160048310610fab57634e487b7160e01b600052602160045260246000fd5b91905290565b600060208252610fc46020830184610efd565b9392505050565b6000610120808352610fdf8184018d610efd565b90508281036020840152610ff3818c610efd565b90508281036040840152611007818b610efd565b9050828103606084015261101b818a610efd565b9050828103608084015261102f8189610efd565b9150508560a08301528460c08301528360e0830152826101008301529a9950505050505050505050565b60006060825261106c6060830186610efd565b602083019490945250901515604090910152919050565b90815260200190565b6000821982111561109f5761109f61112a565b500190565b60005b838110156110bf5781810151838201526020016110a7565b838111156110ce576000848401525b50505050565b6002810460018216806110e857607f821691505b6020821081141561110957634e487b7160e01b600052602260045260246000fd5b50919050565b60006000198214156111235761112361112a565b5060010190565b634e487b7160e01b600052601160045260246000fd5b634e487b7160e01b600052604160045260246000fdfea264697066735822122056f888441f41baf971f12ea8d4a7a48d18f832e7ba1e8a3a536f64d919eb391864736f6c63430008000033",
  "immutableReferences": {},
  "source": "// SPDX-License-Identifier: MIT\npragma solidity >=0.4.21;\n\ncontract DataShare{\n    enum Relation { independent, downloaded, evaluated, owner }     //\n\n    uint dataSetIndex;\n    mapping(uint => DataSet) dataSetCollection;       //id\n    mapping(address => uint[]) uperAllUpload;  // => id\n    mapping(address => mapping(uint => Relation)) dataStatus;    //\n    mapping(address => uint[]) userDownload;    //\n    mapping(address => UserInfo) users;      //\n    mapping(string => uint[]) dataByCategory;       //\n\n    struct DataSet{\n        uint id;\n        address addr;\n        string name;\n        string category;        //\n        string description;     //\n        string uper;            //\n        string dataLink;        //\n        uint downloads;         //\n        uint uploadTime;        //\n        uint favorable;         //\n        uint evaluationCount;   //\n    }\n\n    struct UserInfo{\n        string name;\n        uint point;\n        bool hasExist;\n    }\n\n    constructor(){\n        dataSetIndex = 0;\n    }\n\n    /**\n      * User \n      * \n      */\n    function setUser(string memory _name) public{\n        if(users[msg.sender].hasExist){\n            users[msg.sender].name = _name;\n        }\n        else{\n            users[msg.sender] = UserInfo(_name, 0, true);\n        }\n    }\n\n    /** \n      *  \n      * \n      */\n    function getSelfInfo() public view returns (string memory, uint, bool){\n        return (users[msg.sender].name, users[msg.sender].point, users[msg.sender].hasExist);\n    }\n\n    /**\n      * \n      * hash\n      */\n    function uploadData(string memory _name, string memory _category, string memory _description, string memory _dataLink, uint _point) public{\n        dataSetIndex++;\n        DataSet memory dataset = DataSet(dataSetIndex, msg.sender, _name, _category, _description, users[msg.sender].name, _dataLink, 0, block.timestamp, 0, 0);\n        dataSetCollection[dataSetIndex] = dataset;\n        dataByCategory[_category].push(dataSetIndex);\n        uperAllUpload[msg.sender].push(dataSetIndex);\n        dataStatus[msg.sender][dataSetIndex] = Relation.owner;\n        users[msg.sender].point += _point;\n    }\n    \n    /*  */\n    function checkHasDownload(uint _dataSetId) public view returns (Relation){\n        return dataStatus[msg.sender][_dataSetId];\n    }\n\n    /**\n      * id\n      * id\n      */\n    function addDownloads(uint _dataSetId, uint _point) public{\n        dataSetCollection[_dataSetId].downloads++;\n        dataStatus[msg.sender][_dataSetId] = Relation.downloaded;\n        userDownload[msg.sender].push(_dataSetId);\n        users[dataSetCollection[_dataSetId].addr].point += _point;\n    }\n    \n    /**\n      * \n      * id\n      * hash\n      */\n    function getDataSet(uint _dataSetId) public view returns (string memory, string memory, string memory, string memory, string memory, uint, uint, uint, uint){\n        DataSet memory dataset = dataSetCollection[_dataSetId];\n        return (dataset.name, dataset.category, dataset.description, dataset.uper, dataset.dataLink, dataset.downloads, dataset.uploadTime, dataset.favorable, dataset.evaluationCount);\n    }\n    \n    /*  */\n    function getDataName(uint _dataSetId) public view returns (string memory){\n        return dataSetCollection[_dataSetId].name;\n    }\n\n    /*  */\n    function getIndex() public view returns (uint){\n        return dataSetIndex;\n    }\n    \n    /* id */\n    function getUserAllUploadId() public view returns (uint[] memory){\n        return uperAllUpload[msg.sender];\n    }\n    \n    /* id */\n    function getUserAllDownloadId() public view returns (uint[] memory){\n        return userDownload[msg.sender];\n    }\n    \n    /* id */\n    function getDataIdByCategory(string memory _category) public view returns (uint[] memory){\n        return dataByCategory[_category];\n    }\n    \n    /*  */\n    function setEvaluation(uint _dataSetId, bool isGood) public{\n        if(isGood){\n            dataSetCollection[_dataSetId].favorable++;\n        }\n        dataSetCollection[_dataSetId].evaluationCount++;\n        dataStatus[msg.sender][_dataSetId] = Relation.evaluated;\n    }\n}\n",
  "sourcePath": "/home/amar/DAPP/DataShare/contracts/DataShare.sol",
  "compiler": {
    "name": "solc",
    "version": "0.8.0+commit.c7dfd78e.Emscripten.clang"
  },
  "schemaVersion": "3.3.4",
  "updatedAt": "2021-04-09T08:21:03.645Z",
  "networkType": "ethereum",
  "devdoc": {
    "kind": "dev",
    "methods": {},
    "version": 1
  },
  "userdoc": {
    "kind": "user",
    "methods": {
      "addDownloads(uint256,uint256)": {
        "notice": "id id"
      },
      "getDataSet(uint256)": {
        "notice": " id hash"
      },
      "getSelfInfo()": {
        "notice": "  "
      },
      "setUser(string)": {
        "notice": "User  "
      },
      "uploadData(string,string,string,string,uint256)": {
        "notice": " hash"
      }
    },
    "version": 1
  }
}