{
  "contractName": "DataShare",
  "abi": [
    {
      "inputs": [],
      "payable": false,
      "stateMutability": "nonpayable",
      "type": "constructor"
    },
    {
      "constant": false,
      "inputs": [
        {
          "internalType": "string",
          "name": "_name",
          "type": "string"
        },
        {
          "internalType": "string",
          "name": "_description",
          "type": "string"
        },
        {
          "internalType": "string",
          "name": "_dataLink",
          "type": "string"
        }
      ],
      "name": "uploadData",
      "outputs": [],
      "payable": false,
      "stateMutability": "nonpayable",
      "type": "function"
    },
    {
      "constant": true,
      "inputs": [
        {
          "internalType": "uint256",
          "name": "_dataSetId",
          "type": "uint256"
        }
      ],
      "name": "getDataSet",
      "outputs": [
        {
          "internalType": "string",
          "name": "",
          "type": "string"
        },
        {
          "internalType": "string",
          "name": "",
          "type": "string"
        },
        {
          "internalType": "address",
          "name": "",
          "type": "address"
        },
        {
          "internalType": "string",
          "name": "",
          "type": "string"
        },
        {
          "internalType": "uint256",
          "name": "",
          "type": "uint256"
        },
        {
          "internalType": "uint256",
          "name": "",
          "type": "uint256"
        },
        {
          "internalType": "enum DataShare.DataSetStatus",
          "name": "",
          "type": "uint8"
        }
      ],
      "payable": false,
      "stateMutability": "view",
      "type": "function"
    },
    {
      "constant": true,
      "inputs": [],
      "name": "getIndex",
      "outputs": [
        {
          "internalType": "uint256",
          "name": "",
          "type": "uint256"
        }
      ],
      "payable": false,
      "stateMutability": "view",
      "type": "function"
    }
  ],
  "bytecode": "0x608060405234801561001057600080fd5b5060008081905550610ae9806100276000396000f3fe608060405234801561001057600080fd5b50600436106100415760003560e01c806375700b5e1461004657806381045ead1461022f578063bdaac0561461024d575b600080fd5b61022d6004803603606081101561005c57600080fd5b810190808035906020019064010000000081111561007957600080fd5b82018360208201111561008b57600080fd5b803590602001918460018302840111640100000000831117156100ad57600080fd5b91908080601f016020809104026020016040519081016040528093929190818152602001838380828437600081840152601f19601f8201169050808301925050505050505091929192908035906020019064010000000081111561011057600080fd5b82018360208201111561012257600080fd5b8035906020019184600183028401116401000000008311171561014457600080fd5b91908080601f016020809104026020016040519081016040528093929190818152602001838380828437600081840152601f19601f820116905080830192505050505050509192919290803590602001906401000000008111156101a757600080fd5b8201836020820111156101b957600080fd5b803590602001918460018302840111640100000000831117156101db57600080fd5b91908080601f016020809104026020016040519081016040528093929190818152602001838380828437600081840152601f19601f820116905080830192505050505050509192919290505050610422565b005b61023761062e565b6040518082815260200191505060405180910390f35b6102796004803603602081101561026357600080fd5b8101908080359060200190929190505050610637565b6040518080602001806020018873ffffffffffffffffffffffffffffffffffffffff1673ffffffffffffffffffffffffffffffffffffffff168152602001806020018781526020018681526020018560018111156102d357fe5b60ff16815260200184810384528b818151815260200191508051906020019080838360005b838110156103135780820151818401526020810190506102f8565b50505050905090810190601f1680156103405780820380516001836020036101000a031916815260200191505b5084810383528a818151815260200191508051906020019080838360005b8381101561037957808201518184015260208101905061035e565b50505050905090810190601f1680156103a65780820380516001836020036101000a031916815260200191505b50848103825288818151815260200191508051906020019080838360005b838110156103df5780820151818401526020810190506103c4565b50505050905090810190601f16801561040c5780820380516001836020036101000a031916815260200191505b509a505050505050505050505060405180910390f35b600080815480929190600101919050555061043b6109a9565b60405180610100016040528060005481526020018581526020018481526020013373ffffffffffffffffffffffffffffffffffffffff1681526020018381526020016000815260200142815260200160018081111561049657fe5b815250905033600160008054815260200190815260200160002060006101000a81548173ffffffffffffffffffffffffffffffffffffffff021916908373ffffffffffffffffffffffffffffffffffffffff16021790555080600260003373ffffffffffffffffffffffffffffffffffffffff1673ffffffffffffffffffffffffffffffffffffffff168152602001908152602001600020600080548152602001908152602001600020600082015181600001556020820151816001019080519060200190610566929190610a0f565b506040820151816002019080519060200190610583929190610a0f565b5060608201518160030160006101000a81548173ffffffffffffffffffffffffffffffffffffffff021916908373ffffffffffffffffffffffffffffffffffffffff16021790555060808201518160040190805190602001906105e7929190610a0f565b5060a0820151816005015560c0820151816006015560e08201518160070160006101000a81548160ff0219169083600181111561062057fe5b021790555090505050505050565b60008054905090565b60608060006060600080600061064b6109a9565b60026000600160008c815260200190815260200160002060009054906101000a900473ffffffffffffffffffffffffffffffffffffffff1673ffffffffffffffffffffffffffffffffffffffff1673ffffffffffffffffffffffffffffffffffffffff16815260200190815260200160002060008a81526020019081526020016000206040518061010001604052908160008201548152602001600182018054600181600116156101000203166002900480601f01602080910402602001604051908101604052809291908181526020018280546001816001161561010002031660029004801561077d5780601f106107525761010080835404028352916020019161077d565b820191906000526020600020905b81548152906001019060200180831161076057829003601f168201915b50505050508152602001600282018054600181600116156101000203166002900480601f01602080910402602001604051908101604052809291908181526020018280546001816001161561010002031660029004801561081f5780601f106107f45761010080835404028352916020019161081f565b820191906000526020600020905b81548152906001019060200180831161080257829003601f168201915b505050505081526020016003820160009054906101000a900473ffffffffffffffffffffffffffffffffffffffff1673ffffffffffffffffffffffffffffffffffffffff1673ffffffffffffffffffffffffffffffffffffffff168152602001600482018054600181600116156101000203166002900480601f0160208091040260200160405190810160405280929190818152602001828054600181600116156101000203166002900480156109175780601f106108ec57610100808354040283529160200191610917565b820191906000526020600020905b8154815290600101906020018083116108fa57829003601f168201915b5050505050815260200160058201548152602001600682015481526020016007820160009054906101000a900460ff16600181111561095257fe5b600181111561095d57fe5b81525050905080602001518160400151826060015183608001518460a001518560c001518660e00151869650859550839350975097509750975097509750975050919395979092949650565b604051806101000160405280600081526020016060815260200160608152602001600073ffffffffffffffffffffffffffffffffffffffff16815260200160608152602001600081526020016000815260200160006001811115610a0957fe5b81525090565b828054600181600116156101000203166002900490600052602060002090601f016020900481019282601f10610a5057805160ff1916838001178555610a7e565b82800160010185558215610a7e579182015b82811115610a7d578251825591602001919060010190610a62565b5b509050610a8b9190610a8f565b5090565b610ab191905b80821115610aad576000816000905550600101610a95565b5090565b9056fea265627a7a72315820be734ef8439a65afa90962eada6cdd56253de5a7a189b0fc0d22045dabd8d01b64736f6c63430005100032",
  "source": "// SPDX-License-Identifier: MIT\npragma solidity >=0.4.21 <0.8.0;\n\ncontract DataShare{\n    enum DataSetStatus { invalid, valid }\n\n    uint dataSetIndex;\n    mapping(uint => address) datasetIdToUper;       //数据集id => 该数据集的上传者\n    mapping(address => mapping(uint => DataSet)) uperToAllDataSet;  //上传者 => 其上传的所有数据集\n\n    struct DataSet{\n        uint id;\n        string name;\n        string description;     //数据集描述\n        address uper;\n        string dataLink;        //数据集的链接\n        uint downloads;         //下载量\n        uint uploadTime;        //上传时间\n        DataSetStatus status;   //数据集状态\n    }\n\n    constructor() public{\n        dataSetIndex = 0;\n    }\n\n    function uploadData(string memory _name, string memory _description, string memory _dataLink) public{\n        dataSetIndex++;\n        DataSet memory dataset = DataSet(dataSetIndex, _name, _description, msg.sender, _dataLink, 0, block.timestamp, DataSetStatus.valid);\n        datasetIdToUper[dataSetIndex] = msg.sender;\n        uperToAllDataSet[msg.sender][dataSetIndex] = dataset;\n    }\n\n    function getDataSet(uint _dataSetId) public view returns (string memory, string memory, address, string memory, uint, uint, DataSetStatus){\n        DataSet memory dataset = uperToAllDataSet[datasetIdToUper[_dataSetId]][_dataSetId];\n        return (dataset.name, dataset.description, dataset.uper, dataset.dataLink, dataset.downloads, dataset.uploadTime, dataset.status);\n    }\n\n    function getIndex() public view returns (uint){\n        return dataSetIndex;\n    }\n}\n",
  "sourcePath": "/home/amar/DAPP/DataShare/contracts/DataShare.sol",
  "compiler": {
    "name": "solc",
    "version": "0.5.16+commit.9c3226ce.Emscripten.clang"
  },
  "schemaVersion": "3.3.4",
  "updatedAt": "2021-03-14T10:09:10.075Z",
  "networkType": "ethereum",
  "devdoc": {
    "methods": {}
  },
  "userdoc": {
    "methods": {}
  }
}