{
  "contractName": "DataShare",
  "abi": [
    {
      "inputs": [],
      "payable": false,
      "stateMutability": "nonpayable",
      "type": "constructor"
    },
    {
      "constant": false,
      "inputs": [
        {
          "internalType": "string",
          "name": "_name",
          "type": "string"
        }
      ],
      "name": "setUser",
      "outputs": [],
      "payable": false,
      "stateMutability": "nonpayable",
      "type": "function"
    },
    {
      "constant": true,
      "inputs": [
        {
          "internalType": "address",
          "name": "addr",
          "type": "address"
        }
      ],
      "name": "getSelfInfo",
      "outputs": [
        {
          "internalType": "string",
          "name": "",
          "type": "string"
        },
        {
          "internalType": "uint256",
          "name": "",
          "type": "uint256"
        },
        {
          "internalType": "bool",
          "name": "",
          "type": "bool"
        }
      ],
      "payable": false,
      "stateMutability": "view",
      "type": "function"
    },
    {
      "constant": false,
      "inputs": [
        {
          "internalType": "string",
          "name": "_name",
          "type": "string"
        },
        {
          "internalType": "string",
          "name": "_category",
          "type": "string"
        },
        {
          "internalType": "string",
          "name": "_description",
          "type": "string"
        },
        {
          "internalType": "string",
          "name": "_dataLink",
          "type": "string"
        },
        {
          "internalType": "uint256",
          "name": "_point",
          "type": "uint256"
        }
      ],
      "name": "uploadData",
      "outputs": [],
      "payable": false,
      "stateMutability": "nonpayable",
      "type": "function"
    },
    {
      "constant": false,
      "inputs": [
        {
          "internalType": "uint256",
          "name": "_dataSetId",
          "type": "uint256"
        }
      ],
      "name": "addDownloads",
      "outputs": [],
      "payable": false,
      "stateMutability": "nonpayable",
      "type": "function"
    },
    {
      "constant": true,
      "inputs": [
        {
          "internalType": "uint256",
          "name": "_dataSetId",
          "type": "uint256"
        }
      ],
      "name": "getDataSet",
      "outputs": [
        {
          "internalType": "string",
          "name": "",
          "type": "string"
        },
        {
          "internalType": "string",
          "name": "",
          "type": "string"
        },
        {
          "internalType": "string",
          "name": "",
          "type": "string"
        },
        {
          "internalType": "string",
          "name": "",
          "type": "string"
        },
        {
          "internalType": "string",
          "name": "",
          "type": "string"
        },
        {
          "internalType": "uint256",
          "name": "",
          "type": "uint256"
        },
        {
          "internalType": "uint256",
          "name": "",
          "type": "uint256"
        },
        {
          "internalType": "enum DataShare.DataSetStatus",
          "name": "",
          "type": "uint8"
        }
      ],
      "payable": false,
      "stateMutability": "view",
      "type": "function"
    },
    {
      "constant": true,
      "inputs": [],
      "name": "getIndex",
      "outputs": [
        {
          "internalType": "uint256",
          "name": "",
          "type": "uint256"
        }
      ],
      "payable": false,
      "stateMutability": "view",
      "type": "function"
    }
  ],
  "bytecode": "0x608060405234801561001057600080fd5b50600080819055506112fc806100276000396000f3fe608060405234801561001057600080fd5b50600436106100625760003560e01c806381045ead14610067578063a71a181b14610085578063bdaac056146100b3578063d0020fad1461032d578063eef2d4ce146103e8578063fac14b3314610672575b600080fd5b61006f610741565b6040518082815260200191505060405180910390f35b6100b16004803603602081101561009b57600080fd5b810190808035906020019092919050505061074a565b005b6100df600480360360208110156100c957600080fd5b81019080803590602001909291905050506107e3565b60405180806020018060200180602001806020018060200189815260200188815260200187600181111561010f57fe5b60ff16815260200186810386528e818151815260200191508051906020019080838360005b8381101561014f578082015181840152602081019050610134565b50505050905090810190601f16801561017c5780820380516001836020036101000a031916815260200191505b5086810385528d818151815260200191508051906020019080838360005b838110156101b557808201518184015260208101905061019a565b50505050905090810190601f1680156101e25780820380516001836020036101000a031916815260200191505b5086810384528c818151815260200191508051906020019080838360005b8381101561021b578082015181840152602081019050610200565b50505050905090810190601f1680156102485780820380516001836020036101000a031916815260200191505b5086810383528b818151815260200191508051906020019080838360005b83811015610281578082015181840152602081019050610266565b50505050905090810190601f1680156102ae5780820380516001836020036101000a031916815260200191505b5086810382528a818151815260200191508051906020019080838360005b838110156102e75780820151818401526020810190506102cc565b50505050905090810190601f1680156103145780820380516001836020036101000a031916815260200191505b509d505050505050505050505050505060405180910390f35b6103e66004803603602081101561034357600080fd5b810190808035906020019064010000000081111561036057600080fd5b82018360208201111561037257600080fd5b8035906020019184600183028401116401000000008311171561039457600080fd5b91908080601f016020809104026020016040519081016040528093929190818152602001838380828437600081840152601f19601f820116905080830192505050505050509192919290505050610c52565b005b610670600480360360a08110156103fe57600080fd5b810190808035906020019064010000000081111561041b57600080fd5b82018360208201111561042d57600080fd5b8035906020019184600183028401116401000000008311171561044f57600080fd5b91908080601f016020809104026020016040519081016040528093929190818152602001838380828437600081840152601f19601f820116905080830192505050505050509192919290803590602001906401000000008111156104b257600080fd5b8201836020820111156104c457600080fd5b803590602001918460018302840111640100000000831117156104e657600080fd5b91908080601f016020809104026020016040519081016040528093929190818152602001838380828437600081840152601f19601f8201169050808301925050505050505091929192908035906020019064010000000081111561054957600080fd5b82018360208201111561055b57600080fd5b8035906020019184600183028401116401000000008311171561057d57600080fd5b91908080601f016020809104026020016040519081016040528093929190818152602001838380828437600081840152601f19601f820116905080830192505050505050509192919290803590602001906401000000008111156105e057600080fd5b8201836020820111156105f257600080fd5b8035906020019184600183028401116401000000008311171561061457600080fd5b91908080601f016020809104026020016040519081016040528093929190818152602001838380828437600081840152601f19601f82011690508083019250505050505050919291929080359060200190929190505050610d09565b005b6106b46004803603602081101561068857600080fd5b81019080803573ffffffffffffffffffffffffffffffffffffffff169060200190929190505050611025565b604051808060200184815260200183151515158152602001828103825285818151815260200191508051906020019080838360005b838110156107045780820151818401526020810190506106e9565b50505050905090810190601f1680156107315780820380516001836020036101000a031916815260200191505b5094505050505060405180910390f35b60008054905090565b600260006001600084815260200190815260200160002060009054906101000a900473ffffffffffffffffffffffffffffffffffffffff1673ffffffffffffffffffffffffffffffffffffffff1673ffffffffffffffffffffffffffffffffffffffff16815260200190815260200160002060008281526020019081526020016000206006016000815480929190600101919050555050565b606080606080606060008060006107f86111a8565b60026000600160008d815260200190815260200160002060009054906101000a900473ffffffffffffffffffffffffffffffffffffffff1673ffffffffffffffffffffffffffffffffffffffff1673ffffffffffffffffffffffffffffffffffffffff16815260200190815260200160002060008b81526020019081526020016000206040518061012001604052908160008201548152602001600182018054600181600116156101000203166002900480601f01602080910402602001604051908101604052809291908181526020018280546001816001161561010002031660029004801561092a5780601f106108ff5761010080835404028352916020019161092a565b820191906000526020600020905b81548152906001019060200180831161090d57829003601f168201915b50505050508152602001600282018054600181600116156101000203166002900480601f0160208091040260200160405190810160405280929190818152602001828054600181600116156101000203166002900480156109cc5780601f106109a1576101008083540402835291602001916109cc565b820191906000526020600020905b8154815290600101906020018083116109af57829003601f168201915b50505050508152602001600382018054600181600116156101000203166002900480601f016020809104026020016040519081016040528092919081815260200182805460018160011615610100020316600290048015610a6e5780601f10610a4357610100808354040283529160200191610a6e565b820191906000526020600020905b815481529060010190602001808311610a5157829003601f168201915b50505050508152602001600482018054600181600116156101000203166002900480601f016020809104026020016040519081016040528092919081815260200182805460018160011615610100020316600290048015610b105780601f10610ae557610100808354040283529160200191610b10565b820191906000526020600020905b815481529060010190602001808311610af357829003601f168201915b50505050508152602001600582018054600181600116156101000203166002900480601f016020809104026020016040519081016040528092919081815260200182805460018160011615610100020316600290048015610bb25780601f10610b8757610100808354040283529160200191610bb2565b820191906000526020600020905b815481529060010190602001808311610b9557829003601f168201915b5050505050815260200160068201548152602001600782015481526020016008820160009054906101000a900460ff166001811115610bed57fe5b6001811115610bf857fe5b81525050905080602001518160400151826060015183608001518460a001518560c001518660e001518761010001518797508696508595508494508393509850985098509850985098509850985050919395975091939597565b610c5a6111ff565b60405180606001604052808381526020016000815260200160011515815250905080600360003373ffffffffffffffffffffffffffffffffffffffff1673ffffffffffffffffffffffffffffffffffffffff1681526020019081526020016000206000820151816000019080519060200190610cd7929190611222565b506020820151816001015560408201518160020160006101000a81548160ff0219169083151502179055509050505050565b6000808154809291906001019190505550610d226111a8565b6040518061012001604052806000548152602001878152602001868152602001858152602001600360003373ffffffffffffffffffffffffffffffffffffffff1673ffffffffffffffffffffffffffffffffffffffff1681526020019081526020016000206000018054600181600116156101000203166002900480601f016020809104026020016040519081016040528092919081815260200182805460018160011615610100020316600290048015610e1e5780601f10610df357610100808354040283529160200191610e1e565b820191906000526020600020905b815481529060010190602001808311610e0157829003601f168201915b5050505050815260200184815260200160008152602001428152602001600180811115610e4757fe5b815250905033600160008054815260200190815260200160002060006101000a81548173ffffffffffffffffffffffffffffffffffffffff021916908373ffffffffffffffffffffffffffffffffffffffff16021790555080600260003373ffffffffffffffffffffffffffffffffffffffff1673ffffffffffffffffffffffffffffffffffffffff168152602001908152602001600020600080548152602001908152602001600020600082015181600001556020820151816001019080519060200190610f17929190611222565b506040820151816002019080519060200190610f34929190611222565b506060820151816003019080519060200190610f51929190611222565b506080820151816004019080519060200190610f6e929190611222565b5060a0820151816005019080519060200190610f8b929190611222565b5060c0820151816006015560e082015181600701556101008201518160080160006101000a81548160ff02191690836001811115610fc557fe5b021790555090505081600360003373ffffffffffffffffffffffffffffffffffffffff1673ffffffffffffffffffffffffffffffffffffffff16815260200190815260200160002060010160008282540192505081905550505050505050565b6060600080600360008573ffffffffffffffffffffffffffffffffffffffff1673ffffffffffffffffffffffffffffffffffffffff168152602001908152602001600020600001600360008673ffffffffffffffffffffffffffffffffffffffff1673ffffffffffffffffffffffffffffffffffffffff16815260200190815260200160002060010154600360008773ffffffffffffffffffffffffffffffffffffffff1673ffffffffffffffffffffffffffffffffffffffff16815260200190815260200160002060020160009054906101000a900460ff16828054600181600116156101000203166002900480601f0160208091040260200160405190810160405280929190818152602001828054600181600116156101000203166002900480156111945780601f1061116957610100808354040283529160200191611194565b820191906000526020600020905b81548152906001019060200180831161117757829003601f168201915b505050505092509250925092509193909250565b6040518061012001604052806000815260200160608152602001606081526020016060815260200160608152602001606081526020016000815260200160008152602001600060018111156111f957fe5b81525090565b604051806060016040528060608152602001600081526020016000151581525090565b828054600181600116156101000203166002900490600052602060002090601f016020900481019282601f1061126357805160ff1916838001178555611291565b82800160010185558215611291579182015b82811115611290578251825591602001919060010190611275565b5b50905061129e91906112a2565b5090565b6112c491905b808211156112c05760008160009055506001016112a8565b5090565b9056fea265627a7a7231582090c16f0c5c38b1226b19194b81d1b1b08744ed6638d039cb8fa75ffdbdb85aba64736f6c63430005100032",
  "source": "// SPDX-License-Identifier: MIT\npragma solidity >=0.4.21 <0.8.0;\n\ncontract DataShare{\n    enum DataSetStatus { invalid, valid }\n\n    uint dataSetIndex;\n    mapping(uint => address) datasetIdToUper;       //数据集id => 该数据集的上传者\n    mapping(address => mapping(uint => DataSet)) uperToAllDataSet;  //上传者 => 其上传的所有数据集\n    mapping(address => UserInfo) users;      //用户列表\n\n    struct DataSet{\n        uint id;\n        string name;\n        string category;        //分类\n        string description;     //描述\n        string uper;            //上传者名字\n        string dataLink;        //数据集的链接\n        uint downloads;         //下载量\n        uint uploadTime;        //上传时间\n        DataSetStatus status;   //数据集状态\n    }\n\n    struct UserInfo{\n        string name;\n        uint point;\n        bool hasExist;\n    }\n\n    constructor() public{\n        dataSetIndex = 0;\n    }\n\n    function setUser(string memory _name) public{\n        UserInfo memory user = UserInfo(_name, 0, true);\n        users[msg.sender] = user;\n    }\n\n    function getSelfInfo(address addr) public view returns (string memory, uint, bool){\n        return (users[addr].name, users[addr].point, users[addr].hasExist);\n    }\n\n    function uploadData(string memory _name, string memory _category, string memory _description, string memory _dataLink, uint _point) public{\n        dataSetIndex++;\n        DataSet memory dataset = DataSet(dataSetIndex, _name, _category, _description, users[msg.sender].name, _dataLink, 0, block.timestamp, DataSetStatus.valid);\n        datasetIdToUper[dataSetIndex] = msg.sender;\n        uperToAllDataSet[msg.sender][dataSetIndex] = dataset;\n        users[msg.sender].point += _point;\n    }\n\n    function addDownloads(uint _dataSetId) public{\n        uperToAllDataSet[datasetIdToUper[_dataSetId]][_dataSetId].downloads++;\n    }\n    \n    function getDataSet(uint _dataSetId) public view returns (string memory, string memory, string memory, string memory, string memory, uint, uint, DataSetStatus){\n        DataSet memory dataset = uperToAllDataSet[datasetIdToUper[_dataSetId]][_dataSetId];\n        return (dataset.name, dataset.category, dataset.description, dataset.uper, dataset.dataLink, dataset.downloads, dataset.uploadTime, dataset.status);\n    }\n\n    function getIndex() public view returns (uint){\n        return dataSetIndex;\n    }\n}\n",
  "sourcePath": "/home/amar/DAPP/DataShare/contracts/DataShare.sol",
  "compiler": {
    "name": "solc",
    "version": "0.5.16+commit.9c3226ce.Emscripten.clang"
  },
  "schemaVersion": "3.3.4",
  "updatedAt": "2021-04-02T15:00:59.682Z",
  "networkType": "ethereum",
  "devdoc": {
    "methods": {}
  },
  "userdoc": {
    "methods": {}
  }
}