{
  "contractName": "DataShare",
  "abi": [
    {
      "inputs": [],
      "stateMutability": "nonpayable",
      "type": "constructor"
    },
    {
      "inputs": [
        {
          "internalType": "string",
          "name": "_name",
          "type": "string"
        }
      ],
      "name": "setUser",
      "outputs": [],
      "stateMutability": "nonpayable",
      "type": "function"
    },
    {
      "inputs": [],
      "name": "getSelfInfo",
      "outputs": [
        {
          "internalType": "string",
          "name": "",
          "type": "string"
        },
        {
          "internalType": "uint256",
          "name": "",
          "type": "uint256"
        },
        {
          "internalType": "bool",
          "name": "",
          "type": "bool"
        }
      ],
      "stateMutability": "view",
      "type": "function",
      "constant": true
    },
    {
      "inputs": [
        {
          "internalType": "string",
          "name": "_name",
          "type": "string"
        },
        {
          "internalType": "string",
          "name": "_category",
          "type": "string"
        },
        {
          "internalType": "string",
          "name": "_description",
          "type": "string"
        },
        {
          "internalType": "string",
          "name": "_dataLink",
          "type": "string"
        },
        {
          "internalType": "uint256",
          "name": "_point",
          "type": "uint256"
        }
      ],
      "name": "uploadData",
      "outputs": [],
      "stateMutability": "nonpayable",
      "type": "function"
    },
    {
      "inputs": [
        {
          "internalType": "uint256",
          "name": "_dataSetId",
          "type": "uint256"
        }
      ],
      "name": "checkHasDownload",
      "outputs": [
        {
          "internalType": "enum DataShare.Relation",
          "name": "",
          "type": "uint8"
        }
      ],
      "stateMutability": "view",
      "type": "function",
      "constant": true
    },
    {
      "inputs": [
        {
          "internalType": "uint256",
          "name": "_dataSetId",
          "type": "uint256"
        },
        {
          "internalType": "uint256",
          "name": "_point",
          "type": "uint256"
        }
      ],
      "name": "addDownloads",
      "outputs": [],
      "stateMutability": "nonpayable",
      "type": "function"
    },
    {
      "inputs": [
        {
          "internalType": "uint256",
          "name": "_dataSetId",
          "type": "uint256"
        }
      ],
      "name": "getDataSet",
      "outputs": [
        {
          "internalType": "string",
          "name": "",
          "type": "string"
        },
        {
          "internalType": "string",
          "name": "",
          "type": "string"
        },
        {
          "internalType": "string",
          "name": "",
          "type": "string"
        },
        {
          "internalType": "string",
          "name": "",
          "type": "string"
        },
        {
          "internalType": "string",
          "name": "",
          "type": "string"
        },
        {
          "internalType": "uint256",
          "name": "",
          "type": "uint256"
        },
        {
          "internalType": "uint256",
          "name": "",
          "type": "uint256"
        },
        {
          "internalType": "uint256",
          "name": "",
          "type": "uint256"
        },
        {
          "internalType": "uint256",
          "name": "",
          "type": "uint256"
        }
      ],
      "stateMutability": "view",
      "type": "function",
      "constant": true
    },
    {
      "inputs": [
        {
          "internalType": "uint256",
          "name": "_dataSetId",
          "type": "uint256"
        }
      ],
      "name": "getDataName",
      "outputs": [
        {
          "internalType": "string",
          "name": "",
          "type": "string"
        }
      ],
      "stateMutability": "view",
      "type": "function",
      "constant": true
    },
    {
      "inputs": [],
      "name": "getIndex",
      "outputs": [
        {
          "internalType": "uint256",
          "name": "",
          "type": "uint256"
        }
      ],
      "stateMutability": "view",
      "type": "function",
      "constant": true
    },
    {
      "inputs": [],
      "name": "getUserAllUploadId",
      "outputs": [
        {
          "internalType": "uint256[]",
          "name": "",
          "type": "uint256[]"
        }
      ],
      "stateMutability": "view",
      "type": "function",
      "constant": true
    },
    {
      "inputs": [],
      "name": "getUserAllDownloadId",
      "outputs": [
        {
          "internalType": "uint256[]",
          "name": "",
          "type": "uint256[]"
        }
      ],
      "stateMutability": "view",
      "type": "function",
      "constant": true
    },
    {
      "inputs": [
        {
          "internalType": "string",
          "name": "_category",
          "type": "string"
        }
      ],
      "name": "getDataIdByCategory",
      "outputs": [
        {
          "internalType": "uint256[]",
          "name": "",
          "type": "uint256[]"
        }
      ],
      "stateMutability": "view",
      "type": "function",
      "constant": true
    },
    {
      "inputs": [
        {
          "internalType": "uint256",
          "name": "_dataSetId",
          "type": "uint256"
        },
        {
          "internalType": "bool",
          "name": "isGood",
          "type": "bool"
        }
      ],
      "name": "setEvaluation",
      "outputs": [],
      "stateMutability": "nonpayable",
      "type": "function"
    }
  ],
  "bytecode": "0x608060405234801561001057600080fd5b506000805561128c806100246000396000f3fe608060405234801561001057600080fd5b50600436106100b45760003560e01c8063bdaac05611610071578063bdaac05614610156578063c56ad1481461017e578063c6642f8a14610186578063d0020fad146101a6578063eef2d4ce146101b9578063f2f8cfd3146101cc576100b4565b80631a5f9f9b146100b957806322cc360c146100ce5780637a0cb9f6146100f75780637d24aff81461010a5780637e8e77331461012a57806381045ead14610141575b600080fd5b6100cc6100c7366004610fa9565b6101d4565b005b6100e16100dc366004610f91565b61027d565b6040516100ee9190611089565b60405180910390f35b6100cc610105366004610fdc565b61029d565b61011d610118366004610ea6565b610370565b6040516100ee9190611045565b6101326103e0565b6040516100ee93929190611159565b6101496104a1565b6040516100ee9190611183565b610169610164366004610f91565b6104a7565b6040516100ee999897969594939291906110cb565b61011d6108fb565b610199610194366004610f91565b61095c565b6040516100ee91906110b1565b6100cc6101b4366004610ea6565b6109f7565b6100cc6101c7366004610ee1565b610a9d565b61011d610d2d565b60016101df8361027d565b60038111156101fe57634e487b7160e01b600052602160045260246000fd5b1461020857610279565b801561023157600082815260016020526040812060090180549161022b8361120f565b91905055505b6000828152600160205260408120600a0180549161024e8361120f565b90915550503360009081526003602090815260408083208584529091529020805460ff191660021790555b5050565b336000908152600360209081526040808320938352929052205460ff1690565b60006102a88361027d565b60038111156102c757634e487b7160e01b600052602160045260246000fd5b146102d157610279565b60008281526001602052604081206007018054916102ee8361120f565b90915550503360008181526003602090815260408083208684528252808320805460ff191660019081179091559383526004825280832080548086018255908452828420018690558583528382528083208401546001600160a01b0316835260059091528120909101805483929061036790849061118c565b90915550505050565b60606006826040516103829190611029565b90815260408051918290036020908101832080548083028501830190935282845291908301828280156103d457602002820191906000526020600020905b8154815260200190600101908083116103c0575b50505050509050919050565b3360009081526005602052604081206001810154600282015482546060949384939092909160ff909116908390610416906111d4565b80601f0160208091040260200160405190810160405280929190818152602001828054610442906111d4565b801561048f5780601f106104645761010080835404028352916020019161048f565b820191906000526020600020905b81548152906001019060200180831161047257829003601f168201915b50505050509250925092509250909192565b60005490565b60608060608060606000806000806000600160008c815260200190815260200160002060405180610160016040529081600082015481526020016001820160009054906101000a90046001600160a01b03166001600160a01b03166001600160a01b0316815260200160028201805461051f906111d4565b80601f016020809104026020016040519081016040528092919081815260200182805461054b906111d4565b80156105985780601f1061056d57610100808354040283529160200191610598565b820191906000526020600020905b81548152906001019060200180831161057b57829003601f168201915b505050505081526020016003820180546105b1906111d4565b80601f01602080910402602001604051908101604052809291908181526020018280546105dd906111d4565b801561062a5780601f106105ff5761010080835404028352916020019161062a565b820191906000526020600020905b81548152906001019060200180831161060d57829003601f168201915b50505050508152602001600482018054610643906111d4565b80601f016020809104026020016040519081016040528092919081815260200182805461066f906111d4565b80156106bc5780601f10610691576101008083540402835291602001916106bc565b820191906000526020600020905b81548152906001019060200180831161069f57829003601f168201915b505050505081526020016005820180546106d5906111d4565b80601f0160208091040260200160405190810160405280929190818152602001828054610701906111d4565b801561074e5780601f106107235761010080835404028352916020019161074e565b820191906000526020600020905b81548152906001019060200180831161073157829003601f168201915b50505050508152602001600682018054610767906111d4565b80601f0160208091040260200160405190810160405280929190818152602001828054610793906111d4565b80156107e05780601f106107b5576101008083540402835291602001916107e0565b820191906000526020600020905b8154815290600101906020018083116107c357829003601f168201915b5050509183525050600782015460208201526008820154604082015260098201546060820152600a909101546080909101529050600061081f8c61027d565b600381111561083e57634e487b7160e01b600052602160045260246000fd5b1461088b578060400151816060015182608001518360a001518460c001518560e00151866101000151876101200151886101400151995099509950995099509950995099509950506108ee565b8060400151816060015182608001518360a001518460e00151856101000151866101200151876101400151604051806040016040528060078152602001663ab735b737bbb760c91b81525093929190995099509950995099509950995099509950505b9193959799909294969850565b3360009081526004602090815260409182902080548351818402810184019094528084526060939283018282801561095257602002820191906000526020600020905b81548152602001906001019080831161093e575b5050505050905090565b600081815260016020526040902060020180546060919061097c906111d4565b80601f01602080910402602001604051908101604052809291908181526020018280546109a8906111d4565b80156103d45780601f106109ca576101008083540402835291602001916103d4565b820191906000526020600020905b8154815290600101906020018083116109d85750939695505050505050565b3360009081526005602052604090206002015460ff1615610a38573360009081526005602090815260409091208251610a3292840190610d8c565b50610a9a565b6040805160608101825282815260006020808301829052600183850152338252600581529290208151805192939192610a749284920190610d8c565b50602082015160018201556040909101516002909101805460ff19169115159190911790555b50565b600080549080610aac8361120f565b909155505060408051610160810182526000805482523360208084018290528385018a9052606084018990526080840188905290825260059052918220805460a083019190610afa906111d4565b80601f0160208091040260200160405190810160405280929190818152602001828054610b26906111d4565b8015610b735780601f10610b4857610100808354040283529160200191610b73565b820191906000526020600020905b815481529060010190602001808311610b5657829003601f168201915b50505091835250506020808201869052600060408084018290524260608501526080840182905260a090930181905280548152600180835290839020845181558483015191810180546001600160a01b0319166001600160a01b03909316929092179091559183015180519394508493610bf39260028501920190610d8c565b5060608201518051610c0f916003840191602090910190610d8c565b5060808201518051610c2b916004840191602090910190610d8c565b5060a08201518051610c47916005840191602090910190610d8c565b5060c08201518051610c63916006840191602090910190610d8c565b5060e082015181600701556101008201518160080155610120820151816009015561014082015181600a0155905050600685604051610ca29190611029565b90815260408051602092819003830190206000805482546001808201855593835285832001553380825260028552838220825481548086018355918452868420909101558082526003808652848320835484528652848320805460ff1916909117905581526005909352908220018054849290610d2090849061118c565b9091555050505050505050565b33600090815260026020908152604091829020805483518184028101840190945280845260609392830182828015610952576020028201919060005260206000209081548152602001906001019080831161093e575050505050905090565b828054610d98906111d4565b90600052602060002090601f016020900481019282610dba5760008555610e00565b82601f10610dd357805160ff1916838001178555610e00565b82800160010185558215610e00579182015b82811115610e00578251825591602001919060010190610de5565b50610e0c929150610e10565b5090565b5b80821115610e0c5760008155600101610e11565b600082601f830112610e35578081fd5b813567ffffffffffffffff80821115610e5057610e50611240565b604051601f8301601f191681016020018281118282101715610e7457610e74611240565b604052828152848301602001861015610e8b578384fd5b82602086016020830137918201602001929092529392505050565b600060208284031215610eb7578081fd5b813567ffffffffffffffff811115610ecd578182fd5b610ed984828501610e25565b949350505050565b600080600080600060a08688031215610ef8578081fd5b853567ffffffffffffffff80821115610f0f578283fd5b610f1b89838a01610e25565b96506020880135915080821115610f30578283fd5b610f3c89838a01610e25565b95506040880135915080821115610f51578283fd5b610f5d89838a01610e25565b94506060880135915080821115610f72578283fd5b50610f7f88828901610e25565b95989497509295608001359392505050565b600060208284031215610fa2578081fd5b5035919050565b60008060408385031215610fbb578182fd5b8235915060208301358015158114610fd1578182fd5b809150509250929050565b60008060408385031215610fee578182fd5b50508035926020909101359150565b600081518084526110158160208601602086016111a4565b601f01601f19169290920160200192915050565b6000825161103b8184602087016111a4565b9190910192915050565b6020808252825182820181905260009190848201906040850190845b8181101561107d57835183529284019291840191600101611061565b50909695505050505050565b60208101600483106110ab57634e487b7160e01b600052602160045260246000fd5b91905290565b6000602082526110c46020830184610ffd565b9392505050565b60006101208083526110df8184018d610ffd565b905082810360208401526110f3818c610ffd565b90508281036040840152611107818b610ffd565b9050828103606084015261111b818a610ffd565b9050828103608084015261112f8189610ffd565b9150508560a08301528460c08301528360e0830152826101008301529a9950505050505050505050565b60006060825261116c6060830186610ffd565b602083019490945250901515604090910152919050565b90815260200190565b6000821982111561119f5761119f61122a565b500190565b60005b838110156111bf5781810151838201526020016111a7565b838111156111ce576000848401525b50505050565b6002810460018216806111e857607f821691505b6020821081141561120957634e487b7160e01b600052602260045260246000fd5b50919050565b60006000198214156112235761122361122a565b5060010190565b634e487b7160e01b600052601160045260246000fd5b634e487b7160e01b600052604160045260246000fdfea26469706673582212209c1ae2bce033267c5f8f20d046edcc2e1f340fd67bdab1b235d95240bc597e7e64736f6c63430008000033",
  "immutableReferences": {},
  "source": "// SPDX-License-Identifier: MIT\npragma solidity >=0.4.21;\n\ncontract DataShare{\n    enum Relation { independent, downloaded, evaluated, owner }     //\n\n    uint dataSetIndex;\n    mapping(uint => DataSet) dataSetCollection;       //id\n    mapping(address => uint[]) uperAllUpload;  // => id\n    mapping(address => mapping(uint => Relation)) dataStatus;    //\n    mapping(address => uint[]) userDownload;    //\n    mapping(address => UserInfo) users;      //\n    mapping(string => uint[]) dataByCategory;       //\n\n    struct DataSet{\n        uint id;\n        address addr;\n        string name;\n        string category;        //\n        string description;     //\n        string uper;            //\n        string dataLink;        //\n        uint downloads;         //\n        uint uploadTime;        //\n        uint favorable;         //\n        uint evaluationCount;   //\n    }\n\n    struct UserInfo{\n        string name;\n        uint point;\n        bool hasExist;\n    }\n\n    constructor(){\n        dataSetIndex = 0;\n    }\n\n    /**\n      * User \n      * \n      */\n    function setUser(string memory _name) public{\n        if(users[msg.sender].hasExist){\n            users[msg.sender].name = _name;\n        }\n        else{\n            users[msg.sender] = UserInfo(_name, 0, true);\n        }\n    }\n\n    /** \n      *  \n      * \n      */\n    function getSelfInfo() public view returns (string memory, uint, bool){\n        return (users[msg.sender].name, users[msg.sender].point, users[msg.sender].hasExist);\n    }\n\n    /**\n      * \n      * hash\n      */\n    function uploadData(string memory _name, string memory _category, string memory _description, string memory _dataLink, uint _point) public{\n        dataSetIndex++;\n        DataSet memory dataset = DataSet(dataSetIndex, msg.sender, _name, _category, _description, users[msg.sender].name, _dataLink, 0, block.timestamp, 0, 0);\n        dataSetCollection[dataSetIndex] = dataset;\n        dataByCategory[_category].push(dataSetIndex);\n        uperAllUpload[msg.sender].push(dataSetIndex);\n        dataStatus[msg.sender][dataSetIndex] = Relation.owner;\n        users[msg.sender].point += _point;\n    }\n    \n    /*  */\n    function checkHasDownload(uint _dataSetId) public view returns (Relation){\n        return dataStatus[msg.sender][_dataSetId];\n    }\n\n    /**\n      * id\n      * id\n      */\n    function addDownloads(uint _dataSetId, uint _point) public{\n        if(checkHasDownload(_dataSetId) != Relation.independent){\n            return;\n        }\n        dataSetCollection[_dataSetId].downloads++;\n        dataStatus[msg.sender][_dataSetId] = Relation.downloaded;\n        userDownload[msg.sender].push(_dataSetId);\n        users[dataSetCollection[_dataSetId].addr].point += _point;\n    }\n    \n    /**\n      * \n      * id\n      * hash\n      */\n    function getDataSet(uint _dataSetId) public view returns (string memory, string memory, string memory, string memory, string memory, uint, uint, uint, uint){\n        DataSet memory dataset = dataSetCollection[_dataSetId];\n        if(checkHasDownload(_dataSetId) != Relation.independent){\n            return (dataset.name, dataset.category, dataset.description, dataset.uper, dataset.dataLink, dataset.downloads, dataset.uploadTime, dataset.favorable, dataset.evaluationCount);\n        }\n        else{\n            return (dataset.name, dataset.category, dataset.description, dataset.uper, \"unknown\", dataset.downloads, dataset.uploadTime, dataset.favorable, dataset.evaluationCount);\n        }\n    }\n    \n    /*  */\n    function getDataName(uint _dataSetId) public view returns (string memory){\n        return dataSetCollection[_dataSetId].name;\n    }\n\n    /*  */\n    function getIndex() public view returns (uint){\n        return dataSetIndex;\n    }\n    \n    /* id */\n    function getUserAllUploadId() public view returns (uint[] memory){\n        return uperAllUpload[msg.sender];\n    }\n    \n    /* id */\n    function getUserAllDownloadId() public view returns (uint[] memory){\n        return userDownload[msg.sender];\n    }\n    \n    /* id */\n    function getDataIdByCategory(string memory _category) public view returns (uint[] memory){\n        return dataByCategory[_category];\n    }\n    \n    /*  */\n    function setEvaluation(uint _dataSetId, bool isGood) public{\n        if(checkHasDownload(_dataSetId) != Relation.downloaded){\n            return;\n        }\n        if(isGood){\n            dataSetCollection[_dataSetId].favorable++;\n        }\n        dataSetCollection[_dataSetId].evaluationCount++;\n        dataStatus[msg.sender][_dataSetId] = Relation.evaluated;\n    }\n}\n",
  "sourcePath": "/home/amar/DAPP/DataShare/contracts/DataShare.sol",
  "compiler": {
    "name": "solc",
    "version": "0.8.0+commit.c7dfd78e.Emscripten.clang"
  },
  "schemaVersion": "3.3.4",
  "updatedAt": "2021-04-12T05:09:46.232Z",
  "networkType": "ethereum",
  "devdoc": {
    "kind": "dev",
    "methods": {},
    "version": 1
  },
  "userdoc": {
    "kind": "user",
    "methods": {
      "addDownloads(uint256,uint256)": {
        "notice": "id id"
      },
      "getDataSet(uint256)": {
        "notice": " id hash"
      },
      "getSelfInfo()": {
        "notice": "  "
      },
      "setUser(string)": {
        "notice": "User  "
      },
      "uploadData(string,string,string,string,uint256)": {
        "notice": " hash"
      }
    },
    "version": 1
  }
}