{
  "contractName": "DataShare",
  "abi": [
    {
      "inputs": [],
      "stateMutability": "nonpayable",
      "type": "constructor"
    },
    {
      "inputs": [
        {
          "internalType": "string",
          "name": "_name",
          "type": "string"
        }
      ],
      "name": "setUser",
      "outputs": [],
      "stateMutability": "nonpayable",
      "type": "function"
    },
    {
      "inputs": [],
      "name": "getSelfInfo",
      "outputs": [
        {
          "internalType": "string",
          "name": "",
          "type": "string"
        },
        {
          "internalType": "uint256",
          "name": "",
          "type": "uint256"
        },
        {
          "internalType": "bool",
          "name": "",
          "type": "bool"
        }
      ],
      "stateMutability": "view",
      "type": "function",
      "constant": true
    },
    {
      "inputs": [
        {
          "internalType": "string",
          "name": "_dataLink",
          "type": "string"
        }
      ],
      "name": "isDataUnique",
      "outputs": [
        {
          "internalType": "bool",
          "name": "",
          "type": "bool"
        },
        {
          "internalType": "uint256",
          "name": "",
          "type": "uint256"
        }
      ],
      "stateMutability": "view",
      "type": "function",
      "constant": true
    },
    {
      "inputs": [
        {
          "internalType": "string",
          "name": "_name",
          "type": "string"
        },
        {
          "internalType": "string",
          "name": "_category",
          "type": "string"
        },
        {
          "internalType": "string",
          "name": "_description",
          "type": "string"
        },
        {
          "internalType": "string",
          "name": "_dataLink",
          "type": "string"
        },
        {
          "internalType": "uint256",
          "name": "_point",
          "type": "uint256"
        }
      ],
      "name": "uploadData",
      "outputs": [],
      "stateMutability": "nonpayable",
      "type": "function"
    },
    {
      "inputs": [
        {
          "internalType": "uint256",
          "name": "_dataSetId",
          "type": "uint256"
        }
      ],
      "name": "checkHasDownload",
      "outputs": [
        {
          "internalType": "enum DataShare.Relation",
          "name": "",
          "type": "uint8"
        }
      ],
      "stateMutability": "view",
      "type": "function",
      "constant": true
    },
    {
      "inputs": [
        {
          "internalType": "uint256",
          "name": "_dataSetId",
          "type": "uint256"
        },
        {
          "internalType": "uint256",
          "name": "_point",
          "type": "uint256"
        }
      ],
      "name": "addDownloads",
      "outputs": [],
      "stateMutability": "nonpayable",
      "type": "function"
    },
    {
      "inputs": [
        {
          "internalType": "uint256",
          "name": "_dataSetId",
          "type": "uint256"
        }
      ],
      "name": "getDataSet",
      "outputs": [
        {
          "internalType": "string",
          "name": "",
          "type": "string"
        },
        {
          "internalType": "string",
          "name": "",
          "type": "string"
        },
        {
          "internalType": "string",
          "name": "",
          "type": "string"
        },
        {
          "internalType": "string",
          "name": "",
          "type": "string"
        },
        {
          "internalType": "uint256",
          "name": "",
          "type": "uint256"
        },
        {
          "internalType": "uint256",
          "name": "",
          "type": "uint256"
        },
        {
          "internalType": "uint256",
          "name": "",
          "type": "uint256"
        },
        {
          "internalType": "uint256",
          "name": "",
          "type": "uint256"
        }
      ],
      "stateMutability": "view",
      "type": "function",
      "constant": true
    },
    {
      "inputs": [
        {
          "internalType": "uint256",
          "name": "_dataSetId",
          "type": "uint256"
        }
      ],
      "name": "getHash",
      "outputs": [
        {
          "internalType": "string",
          "name": "",
          "type": "string"
        }
      ],
      "stateMutability": "view",
      "type": "function",
      "constant": true
    },
    {
      "inputs": [
        {
          "internalType": "uint256",
          "name": "_dataSetId",
          "type": "uint256"
        }
      ],
      "name": "getDataName",
      "outputs": [
        {
          "internalType": "string",
          "name": "",
          "type": "string"
        }
      ],
      "stateMutability": "view",
      "type": "function",
      "constant": true
    },
    {
      "inputs": [],
      "name": "getIndex",
      "outputs": [
        {
          "internalType": "uint256",
          "name": "",
          "type": "uint256"
        }
      ],
      "stateMutability": "view",
      "type": "function",
      "constant": true
    },
    {
      "inputs": [],
      "name": "getUserAllUploadId",
      "outputs": [
        {
          "internalType": "uint256[]",
          "name": "",
          "type": "uint256[]"
        }
      ],
      "stateMutability": "view",
      "type": "function",
      "constant": true
    },
    {
      "inputs": [],
      "name": "getUserAllDownloadId",
      "outputs": [
        {
          "internalType": "uint256[]",
          "name": "",
          "type": "uint256[]"
        }
      ],
      "stateMutability": "view",
      "type": "function",
      "constant": true
    },
    {
      "inputs": [
        {
          "internalType": "string",
          "name": "_category",
          "type": "string"
        }
      ],
      "name": "getDataIdByCategory",
      "outputs": [
        {
          "internalType": "uint256[]",
          "name": "",
          "type": "uint256[]"
        }
      ],
      "stateMutability": "view",
      "type": "function",
      "constant": true
    },
    {
      "inputs": [
        {
          "internalType": "uint256",
          "name": "_dataSetId",
          "type": "uint256"
        },
        {
          "internalType": "bool",
          "name": "isGood",
          "type": "bool"
        }
      ],
      "name": "setEvaluation",
      "outputs": [],
      "stateMutability": "nonpayable",
      "type": "function"
    }
  ],
  "bytecode": "0x608060405234801561001057600080fd5b50600080556114ab806100246000396000f3fe608060405234801561001057600080fd5b50600436106100ea5760003560e01c806381045ead1161008c578063c6642f8a11610066578063c6642f8a146101fc578063d0020fad1461020f578063eef2d4ce14610222578063f2f8cfd314610235576100ea565b806381045ead146101b8578063bdaac056146101cd578063c56ad148146101f4576100ea565b80636b2fafa9116100c85780636b2fafa91461014e5780637a0cb9f61461016e5780637d24aff8146101815780637e8e7733146101a1576100ea565b806303088f0f146100ef5780631a5f9f9b1461011957806322cc360c1461012e575b600080fd5b6101026100fd366004611024565b61023d565b6040516101109291906112a2565b60405180910390f35b61012c610127366004611127565b6102fa565b005b61014161013c36600461110f565b6103a3565b60405161011091906112b2565b61016161015c36600461110f565b6103c7565b60405161011091906112da565b61012c61017c36600461115a565b6104be565b61019461018f366004611024565b610591565b604051610110919061125e565b6101a9610601565b6040516101109392919061136c565b6101c06106c2565b6040516101109190611396565b6101e06101db36600461110f565b6106c8565b6040516101109897969594939291906112f4565b610194610a79565b61016161020a36600461110f565b610ada565b61012c61021d366004611024565b610b75565b61012c61023036600461105f565b610c1b565b610194610eab565b60008060005b6000548110156102eb578360405160200161025e91906111a7565b604051602081830303815290604052805190602001206001600083600161028591906113ab565b81526020019081526020016000206006016040516020016102a691906111c3565b6040516020818303038152906040528051906020012014156102d95760006102cf8260016113ab565b92509250506102f5565b806102e38161142e565b915050610243565b5060016000915091505b915091565b6001610305836103a3565b600381111561032457634e487b7160e01b600052602160045260246000fd5b1461032e5761039f565b80156103575760008281526001602052604081206009018054916103518361142e565b91905055505b6000828152600160205260408120600a018054916103748361142e565b90915550503360009081526003602090815260408083208584529091529020805460ff191660021790555b5050565b33600090815260036020908152604080832084845290915290205460ff165b919050565b606060006103d4836103a3565b60038111156103f357634e487b7160e01b600052602160045260246000fd5b141561041d57506040805180820190915260078152663ab735b737bbb760c91b60208201526103c2565b60008281526001602052604090206006018054610439906113f3565b80601f0160208091040260200160405190810160405280929190818152602001828054610465906113f3565b80156104b25780601f10610487576101008083540402835291602001916104b2565b820191906000526020600020905b81548152906001019060200180831161049557829003601f168201915b505050505090506103c2565b60006104c9836103a3565b60038111156104e857634e487b7160e01b600052602160045260246000fd5b146104f25761039f565b600082815260016020526040812060070180549161050f8361142e565b90915550503360008181526003602090815260408083208684528252808320805460ff191660019081179091559383526004825280832080548086018255908452828420018690558583528382528083208401546001600160a01b031683526005909152812090910180548392906105889084906113ab565b90915550505050565b60606006826040516105a391906111a7565b90815260408051918290036020908101832080548083028501830190935282845291908301828280156105f557602002820191906000526020600020905b8154815260200190600101908083116105e1575b50505050509050919050565b3360009081526005602052604081206001810154600282015482546060949384939092909160ff909116908390610637906113f3565b80601f0160208091040260200160405190810160405280929190818152602001828054610663906113f3565b80156106b05780601f10610685576101008083540402835291602001916106b0565b820191906000526020600020905b81548152906001019060200180831161069357829003601f168201915b50505050509250925092509250909192565b60005490565b6060806060806000806000806000600160008b815260200190815260200160002060405180610160016040529081600082015481526020016001820160009054906101000a90046001600160a01b03166001600160a01b03166001600160a01b0316815260200160028201805461073e906113f3565b80601f016020809104026020016040519081016040528092919081815260200182805461076a906113f3565b80156107b75780601f1061078c576101008083540402835291602001916107b7565b820191906000526020600020905b81548152906001019060200180831161079a57829003601f168201915b505050505081526020016003820180546107d0906113f3565b80601f01602080910402602001604051908101604052809291908181526020018280546107fc906113f3565b80156108495780601f1061081e57610100808354040283529160200191610849565b820191906000526020600020905b81548152906001019060200180831161082c57829003601f168201915b50505050508152602001600482018054610862906113f3565b80601f016020809104026020016040519081016040528092919081815260200182805461088e906113f3565b80156108db5780601f106108b0576101008083540402835291602001916108db565b820191906000526020600020905b8154815290600101906020018083116108be57829003601f168201915b505050505081526020016005820180546108f4906113f3565b80601f0160208091040260200160405190810160405280929190818152602001828054610920906113f3565b801561096d5780601f106109425761010080835404028352916020019161096d565b820191906000526020600020905b81548152906001019060200180831161095057829003601f168201915b50505050508152602001600682018054610986906113f3565b80601f01602080910402602001604051908101604052809291908181526020018280546109b2906113f3565b80156109ff5780601f106109d4576101008083540402835291602001916109ff565b820191906000526020600020905b8154815290600101906020018083116109e257829003601f168201915b50505050508152602001600782015481526020016008820154815260200160098201548152602001600a8201548152505090508060400151816060015182608001518360a001518460e001518561010001518661012001518761014001519850985098509850985098509850985050919395975091939597565b33600090815260046020908152604091829020805483518184028101840190945280845260609392830182828015610ad057602002820191906000526020600020905b815481526020019060010190808311610abc575b5050505050905090565b6000818152600160205260409020600201805460609190610afa906113f3565b80601f0160208091040260200160405190810160405280929190818152602001828054610b26906113f3565b80156105f55780601f10610b48576101008083540402835291602001916105f5565b820191906000526020600020905b815481529060010190602001808311610b565750939695505050505050565b3360009081526005602052604090206002015460ff1615610bb6573360009081526005602090815260409091208251610bb092840190610f0a565b50610c18565b6040805160608101825282815260006020808301829052600183850152338252600581529290208151805192939192610bf29284920190610f0a565b50602082015160018201556040909101516002909101805460ff19169115159190911790555b50565b600080549080610c2a8361142e565b909155505060408051610160810182526000805482523360208084018290528385018a9052606084018990526080840188905290825260059052918220805460a083019190610c78906113f3565b80601f0160208091040260200160405190810160405280929190818152602001828054610ca4906113f3565b8015610cf15780601f10610cc657610100808354040283529160200191610cf1565b820191906000526020600020905b815481529060010190602001808311610cd457829003601f168201915b50505091835250506020808201869052600060408084018290524260608501526080840182905260a090930181905280548152600180835290839020845181558483015191810180546001600160a01b0319166001600160a01b03909316929092179091559183015180519394508493610d719260028501920190610f0a565b5060608201518051610d8d916003840191602090910190610f0a565b5060808201518051610da9916004840191602090910190610f0a565b5060a08201518051610dc5916005840191602090910190610f0a565b5060c08201518051610de1916006840191602090910190610f0a565b5060e082015181600701556101008201518160080155610120820151816009015561014082015181600a0155905050600685604051610e2091906111a7565b90815260408051602092819003830190206000805482546001808201855593835285832001553380825260028552838220825481548086018355918452868420909101558082526003808652848320835484528652848320805460ff1916909117905581526005909352908220018054849290610e9e9084906113ab565b9091555050505050505050565b33600090815260026020908152604091829020805483518184028101840190945280845260609392830182828015610ad05760200282019190600052602060002090815481526020019060010190808311610abc575050505050905090565b828054610f16906113f3565b90600052602060002090601f016020900481019282610f385760008555610f7e565b82601f10610f5157805160ff1916838001178555610f7e565b82800160010185558215610f7e579182015b82811115610f7e578251825591602001919060010190610f63565b50610f8a929150610f8e565b5090565b5b80821115610f8a5760008155600101610f8f565b600082601f830112610fb3578081fd5b813567ffffffffffffffff80821115610fce57610fce61145f565b604051601f8301601f191681016020018281118282101715610ff257610ff261145f565b604052828152848301602001861015611009578384fd5b82602086016020830137918201602001929092529392505050565b600060208284031215611035578081fd5b813567ffffffffffffffff81111561104b578182fd5b61105784828501610fa3565b949350505050565b600080600080600060a08688031215611076578081fd5b853567ffffffffffffffff8082111561108d578283fd5b61109989838a01610fa3565b965060208801359150808211156110ae578283fd5b6110ba89838a01610fa3565b955060408801359150808211156110cf578283fd5b6110db89838a01610fa3565b945060608801359150808211156110f0578283fd5b506110fd88828901610fa3565b95989497509295608001359392505050565b600060208284031215611120578081fd5b5035919050565b60008060408385031215611139578182fd5b823591506020830135801515811461114f578182fd5b809150509250929050565b6000806040838503121561116c578182fd5b50508035926020909101359150565b600081518084526111938160208601602086016113c3565b601f01601f19169290920160200192915050565b600082516111b98184602087016113c3565b9190910192915050565b81546000908190600281046001808316806111df57607f831692505b60208084108214156111ff57634e487b7160e01b87526022600452602487fd5b818015611213576001811461122457611250565b60ff19861689528489019650611250565b61122d8a61139f565b885b868110156112485781548b82015290850190830161122f565b505084890196505b509498975050505050505050565b6020808252825182820181905260009190848201906040850190845b818110156112965783518352928401929184019160010161127a565b50909695505050505050565b9115158252602082015260400190565b60208101600483106112d457634e487b7160e01b600052602160045260246000fd5b91905290565b6000602082526112ed602083018461117b565b9392505050565b60006101008083526113088184018c61117b565b9050828103602084015261131c818b61117b565b90508281036040840152611330818a61117b565b90508281036060840152611344818961117b565b9150508560808301528460a08301528360c08301528260e08301529998505050505050505050565b60006060825261137f606083018661117b565b602083019490945250901515604090910152919050565b90815260200190565b60009081526020902090565b600082198211156113be576113be611449565b500190565b60005b838110156113de5781810151838201526020016113c6565b838111156113ed576000848401525b50505050565b60028104600182168061140757607f821691505b6020821081141561142857634e487b7160e01b600052602260045260246000fd5b50919050565b600060001982141561144257611442611449565b5060010190565b634e487b7160e01b600052601160045260246000fd5b634e487b7160e01b600052604160045260246000fdfea264697066735822122064627f79ae071267d3320696aafe081e8bc38c4f0808ad662a473847db41c84364736f6c63430008000033",
  "immutableReferences": {},
  "source": "// SPDX-License-Identifier: MIT\npragma solidity >=0.4.21;\n\ncontract DataShare{\n    enum Relation { independent, downloaded, evaluated, owner }     //\n\n    uint dataSetIndex;\n    mapping(uint => DataSet) dataSetCollection;       //id\n    mapping(address => uint[]) uperAllUpload;  // => id\n    mapping(address => mapping(uint => Relation)) dataStatus;    //\n    mapping(address => uint[]) userDownload;    //\n    mapping(address => UserInfo) users;      //\n    mapping(string => uint[]) dataByCategory;       //\n\n    struct DataSet{\n        uint id;\n        address addr;\n        string name;\n        string category;        //\n        string description;     //\n        string uper;            //\n        string dataLink;        //\n        uint downloads;         //\n        uint uploadTime;        //\n        uint favorable;         //\n        uint evaluationCount;   //\n    }\n\n    struct UserInfo{\n        string name;\n        uint point;\n        bool hasExist;\n    }\n\n    constructor(){\n        dataSetIndex = 0;\n    }\n\n    /**\n      * User \n      * \n      */\n    function setUser(string memory _name) public{\n        if(users[msg.sender].hasExist){\n            users[msg.sender].name = _name;\n        }\n        else{\n            users[msg.sender] = UserInfo(_name, 0, true);\n        }\n    }\n\n    /** \n      *  \n      * \n      */\n    function getSelfInfo() public view returns (string memory, uint, bool){\n        return (users[msg.sender].name, users[msg.sender].point, users[msg.sender].hasExist);\n    }\n\n    function isDataUnique(string memory _dataLink) public view returns (bool, uint){\n        for(uint i = 0; i < dataSetIndex; i++){\n            if(keccak256(abi.encodePacked(dataSetCollection[i + 1].dataLink)) == keccak256(abi.encodePacked(_dataLink))){\n                return (false, i + 1);\n            }\n        }\n        return (true, 0);\n    }\n\n    /**\n      * \n      * hash\n      */\n    function uploadData(string memory _name, string memory _category, string memory _description, string memory _dataLink, uint _point) public{\n        dataSetIndex++;\n        DataSet memory dataset = DataSet(dataSetIndex, msg.sender, _name, _category, _description, users[msg.sender].name, _dataLink, 0, block.timestamp, 0, 0);\n        dataSetCollection[dataSetIndex] = dataset;\n        dataByCategory[_category].push(dataSetIndex);\n        uperAllUpload[msg.sender].push(dataSetIndex);\n        dataStatus[msg.sender][dataSetIndex] = Relation.owner;\n        users[msg.sender].point += _point;\n    }\n    \n    /*  */\n    function checkHasDownload(uint _dataSetId) public view returns (Relation){\n        return dataStatus[msg.sender][_dataSetId];\n    }\n\n    /**\n      * id\n      * id\n      */\n    function addDownloads(uint _dataSetId, uint _point) public{\n        if(checkHasDownload(_dataSetId) != Relation.independent){\n            return;\n        }\n        dataSetCollection[_dataSetId].downloads++;\n        dataStatus[msg.sender][_dataSetId] = Relation.downloaded;\n        userDownload[msg.sender].push(_dataSetId);\n        users[dataSetCollection[_dataSetId].addr].point += _point;\n    }\n    \n    /**\n      * \n      * id\n      * hash\n      */\n    function getDataSet(uint _dataSetId) public view returns (string memory, string memory, string memory, string memory, uint, uint, uint, uint){\n        DataSet memory dataset = dataSetCollection[_dataSetId];\n        return (dataset.name, dataset.category, dataset.description, dataset.uper, dataset.downloads, dataset.uploadTime, dataset.favorable, dataset.evaluationCount);\n    }\n\n    /*  */\n    function getHash(uint _dataSetId) public view returns (string memory){\n        if(checkHasDownload(_dataSetId) == Relation.independent){\n            return \"unknown\";\n        }\n        else{\n            return dataSetCollection[_dataSetId].dataLink;\n        }\n    }\n    \n    /*  */\n    function getDataName(uint _dataSetId) public view returns (string memory){\n        return dataSetCollection[_dataSetId].name;\n    }\n\n    /*  */\n    function getIndex() public view returns (uint){\n        return dataSetIndex;\n    }\n    \n    /* id */\n    function getUserAllUploadId() public view returns (uint[] memory){\n        return uperAllUpload[msg.sender];\n    }\n    \n    /* id */\n    function getUserAllDownloadId() public view returns (uint[] memory){\n        return userDownload[msg.sender];\n    }\n    \n    /* id */\n    function getDataIdByCategory(string memory _category) public view returns (uint[] memory){\n        return dataByCategory[_category];\n    }\n    \n    /*  */\n    function setEvaluation(uint _dataSetId, bool isGood) public{\n        if(checkHasDownload(_dataSetId) != Relation.downloaded){\n            return;\n        }\n        if(isGood){\n            dataSetCollection[_dataSetId].favorable++;\n        }\n        dataSetCollection[_dataSetId].evaluationCount++;\n        dataStatus[msg.sender][_dataSetId] = Relation.evaluated;\n    }\n}\n",
  "sourcePath": "/home/amar/DAPP/DataShare/contracts/DataShare.sol",
  "compiler": {
    "name": "solc",
    "version": "0.8.0+commit.c7dfd78e.Emscripten.clang"
  },
  "schemaVersion": "3.3.4",
  "updatedAt": "2021-05-15T08:36:57.818Z",
  "networkType": "ethereum",
  "devdoc": {
    "kind": "dev",
    "methods": {},
    "version": 1
  },
  "userdoc": {
    "kind": "user",
    "methods": {
      "addDownloads(uint256,uint256)": {
        "notice": "id id"
      },
      "getDataSet(uint256)": {
        "notice": " id hash"
      },
      "getSelfInfo()": {
        "notice": "  "
      },
      "setUser(string)": {
        "notice": "User  "
      },
      "uploadData(string,string,string,string,uint256)": {
        "notice": " hash"
      }
    },
    "version": 1
  }
}