{
  "contractName": "DataShare",
  "abi": [
    {
      "inputs": [],
      "stateMutability": "nonpayable",
      "type": "constructor"
    },
    {
      "inputs": [
        {
          "internalType": "string",
          "name": "_name",
          "type": "string"
        }
      ],
      "name": "setUser",
      "outputs": [],
      "stateMutability": "nonpayable",
      "type": "function"
    },
    {
      "inputs": [],
      "name": "getSelfInfo",
      "outputs": [
        {
          "internalType": "string",
          "name": "",
          "type": "string"
        },
        {
          "internalType": "uint256",
          "name": "",
          "type": "uint256"
        },
        {
          "internalType": "bool",
          "name": "",
          "type": "bool"
        }
      ],
      "stateMutability": "view",
      "type": "function",
      "constant": true
    },
    {
      "inputs": [
        {
          "internalType": "string",
          "name": "_name",
          "type": "string"
        },
        {
          "internalType": "string",
          "name": "_category",
          "type": "string"
        },
        {
          "internalType": "string",
          "name": "_description",
          "type": "string"
        },
        {
          "internalType": "string",
          "name": "_dataLink",
          "type": "string"
        },
        {
          "internalType": "uint256",
          "name": "_point",
          "type": "uint256"
        }
      ],
      "name": "uploadData",
      "outputs": [],
      "stateMutability": "nonpayable",
      "type": "function"
    },
    {
      "inputs": [
        {
          "internalType": "uint256",
          "name": "_dataSetId",
          "type": "uint256"
        }
      ],
      "name": "checkHasDownload",
      "outputs": [
        {
          "internalType": "bool",
          "name": "",
          "type": "bool"
        }
      ],
      "stateMutability": "view",
      "type": "function",
      "constant": true
    },
    {
      "inputs": [
        {
          "internalType": "uint256",
          "name": "_dataSetId",
          "type": "uint256"
        }
      ],
      "name": "addDownloads",
      "outputs": [],
      "stateMutability": "nonpayable",
      "type": "function"
    },
    {
      "inputs": [
        {
          "internalType": "uint256",
          "name": "_dataSetId",
          "type": "uint256"
        }
      ],
      "name": "getDataSet",
      "outputs": [
        {
          "internalType": "string",
          "name": "",
          "type": "string"
        },
        {
          "internalType": "string",
          "name": "",
          "type": "string"
        },
        {
          "internalType": "string",
          "name": "",
          "type": "string"
        },
        {
          "internalType": "string",
          "name": "",
          "type": "string"
        },
        {
          "internalType": "string",
          "name": "",
          "type": "string"
        },
        {
          "internalType": "uint256",
          "name": "",
          "type": "uint256"
        },
        {
          "internalType": "uint256",
          "name": "",
          "type": "uint256"
        },
        {
          "internalType": "enum DataShare.DataSetStatus",
          "name": "",
          "type": "uint8"
        }
      ],
      "stateMutability": "view",
      "type": "function",
      "constant": true
    },
    {
      "inputs": [],
      "name": "getIndex",
      "outputs": [
        {
          "internalType": "uint256",
          "name": "",
          "type": "uint256"
        }
      ],
      "stateMutability": "view",
      "type": "function",
      "constant": true
    },
    {
      "inputs": [],
      "name": "getUserAllUploadId",
      "outputs": [
        {
          "internalType": "uint256[]",
          "name": "",
          "type": "uint256[]"
        }
      ],
      "stateMutability": "view",
      "type": "function",
      "constant": true
    },
    {
      "inputs": [],
      "name": "getUserAllDownloadId",
      "outputs": [
        {
          "internalType": "uint256[]",
          "name": "",
          "type": "uint256[]"
        }
      ],
      "stateMutability": "view",
      "type": "function",
      "constant": true
    },
    {
      "inputs": [
        {
          "internalType": "uint256",
          "name": "_dataSetId",
          "type": "uint256"
        }
      ],
      "name": "dropData",
      "outputs": [],
      "stateMutability": "nonpayable",
      "type": "function"
    }
  ],
  "bytecode": "0x608060405234801561001057600080fd5b5060008055610e5d806100246000396000f3fe608060405234801561001057600080fd5b506004361061009e5760003560e01c8063bdaac05611610066578063bdaac05614610120578063c56ad14814610147578063d0020fad1461015c578063eef2d4ce1461016f578063f2f8cfd3146101825761009e565b806322cc360c146100a35780637e8e7733146100cc57806381045ead146100e3578063826396f6146100f8578063a71a181b1461010d575b600080fd5b6100b66100b1366004610c04565b61018a565b6040516100c39190610cab565b60405180910390f35b6100d46101aa565b6040516100c393929190610d5a565b6100eb61026b565b6040516100c39190610d84565b61010b610106366004610c04565b610271565b005b61010b61011b366004610c04565b61028c565b61013361012e366004610c04565b6102ee565b6040516100c3989796959493929190610cb6565b61014f6106a9565b6040516100c39190610c67565b61010b61016a366004610b19565b61070a565b61010b61017d366004610b54565b61076f565b61014f6109a0565b336000908152600360209081526040808320938352929052205460ff1690565b3360009081526005602052604081206001810154600282015482546060949384939092909160ff9091169083906101e090610da5565b80601f016020809104026020016040519081016040528092919081815260200182805461020c90610da5565b80156102595780601f1061022e57610100808354040283529160200191610259565b820191906000526020600020905b81548152906001019060200180831161023c57829003601f168201915b50505050509250925092509250909192565b60005490565b6000908152600160205260409020600801805460ff19169055565b60008181526001602052604081206006018054916102a983610de0565b90915550503360008181526003602090815260408083208584528252808320805460ff1916600190811790915593835260048252822080549384018155825290200155565b6060806060806060600080600080600160008b8152602001908152602001600020604051806101200160405290816000820154815260200160018201805461033590610da5565b80601f016020809104026020016040519081016040528092919081815260200182805461036190610da5565b80156103ae5780601f10610383576101008083540402835291602001916103ae565b820191906000526020600020905b81548152906001019060200180831161039157829003601f168201915b505050505081526020016002820180546103c790610da5565b80601f01602080910402602001604051908101604052809291908181526020018280546103f390610da5565b80156104405780601f1061041557610100808354040283529160200191610440565b820191906000526020600020905b81548152906001019060200180831161042357829003601f168201915b5050505050815260200160038201805461045990610da5565b80601f016020809104026020016040519081016040528092919081815260200182805461048590610da5565b80156104d25780601f106104a7576101008083540402835291602001916104d2565b820191906000526020600020905b8154815290600101906020018083116104b557829003601f168201915b505050505081526020016004820180546104eb90610da5565b80601f016020809104026020016040519081016040528092919081815260200182805461051790610da5565b80156105645780601f1061053957610100808354040283529160200191610564565b820191906000526020600020905b81548152906001019060200180831161054757829003601f168201915b5050505050815260200160058201805461057d90610da5565b80601f01602080910402602001604051908101604052809291908181526020018280546105a990610da5565b80156105f65780601f106105cb576101008083540402835291602001916105f6565b820191906000526020600020905b8154815290600101906020018083116105d957829003601f168201915b50505091835250506006820154602082015260078201546040820152600882015460609091019060ff16600181111561063f57634e487b7160e01b600052602160045260246000fd5b600181111561065e57634e487b7160e01b600052602160045260246000fd5b81525050905080602001518160400151826060015183608001518460a001518560c001518660e001518761010001519850985098509850985098509850985050919395975091939597565b3360009081526004602090815260409182902080548351818402810184019094528084526060939283018282801561070057602002820191906000526020600020905b8154815260200190600101908083116106ec575b5050505050905090565b604080516060810182528281526000602080830182905260018385015233825260058152929020815180519293849361074692849201906109ff565b50602082015160018201556040909101516002909101805460ff19169115159190911790555050565b60008054908061077e83610de0565b909155505060408051610120810182526000805482526020808301899052828401889052606083018790523382526005905291822080546080830191906107c490610da5565b80601f01602080910402602001604051908101604052809291908181526020018280546107f090610da5565b801561083d5780601f106108125761010080835404028352916020019161083d565b820191906000526020600020905b81548152906001019060200180831161082057829003601f168201915b50505091835250506020810185905260006040820152426060820152608001600190526000805481526001602081815260409092208351815582840151805194955085949193610892938501929101906109ff565b50604082015180516108ae9160028401916020909101906109ff565b50606082015180516108ca9160038401916020909101906109ff565b50608082015180516108e69160048401916020909101906109ff565b5060a082015180516109029160058401916020909101906109ff565b5060c0820151600682015560e0820151600782015561010082015160088201805460ff19166001838181111561094857634e487b7160e01b600052602160045260246000fd5b02179055505033600081815260026020908152604080832083548154600181810184559286528486200155938352600590915281209091018054859350909190610993908490610d8d565b9091555050505050505050565b3360009081526002602090815260409182902080548351818402810184019094528084526060939283018282801561070057602002820191906000526020600020908154815260200190600101908083116106ec575050505050905090565b828054610a0b90610da5565b90600052602060002090601f016020900481019282610a2d5760008555610a73565b82601f10610a4657805160ff1916838001178555610a73565b82800160010185558215610a73579182015b82811115610a73578251825591602001919060010190610a58565b50610a7f929150610a83565b5090565b5b80821115610a7f5760008155600101610a84565b600082601f830112610aa8578081fd5b813567ffffffffffffffff80821115610ac357610ac3610e11565b604051601f8301601f191681016020018281118282101715610ae757610ae7610e11565b604052828152848301602001861015610afe578384fd5b82602086016020830137918201602001929092529392505050565b600060208284031215610b2a578081fd5b813567ffffffffffffffff811115610b40578182fd5b610b4c84828501610a98565b949350505050565b600080600080600060a08688031215610b6b578081fd5b853567ffffffffffffffff80821115610b82578283fd5b610b8e89838a01610a98565b96506020880135915080821115610ba3578283fd5b610baf89838a01610a98565b95506040880135915080821115610bc4578283fd5b610bd089838a01610a98565b94506060880135915080821115610be5578283fd5b50610bf288828901610a98565b95989497509295608001359392505050565b600060208284031215610c15578081fd5b5035919050565b60008151808452815b81811015610c4157602081850181015186830182015201610c25565b81811115610c525782602083870101525b50601f01601f19169290920160200192915050565b6020808252825182820181905260009190848201906040850190845b81811015610c9f57835183529284019291840191600101610c83565b50909695505050505050565b901515815260200190565b6000610100808352610cca8184018c610c1c565b90508281036020840152610cde818b610c1c565b90508281036040840152610cf2818a610c1c565b90508281036060840152610d068189610c1c565b90508281036080840152610d1a8188610c1c565b9150508460a08301528360c083015260028310610d4757634e487b7160e01b600052602160045260246000fd5b8260e08301529998505050505050505050565b600060608252610d6d6060830186610c1c565b602083019490945250901515604090910152919050565b90815260200190565b60008219821115610da057610da0610dfb565b500190565b600281046001821680610db957607f821691505b60208210811415610dda57634e487b7160e01b600052602260045260246000fd5b50919050565b6000600019821415610df457610df4610dfb565b5060010190565b634e487b7160e01b600052601160045260246000fd5b634e487b7160e01b600052604160045260246000fdfea26469706673582212205d7c0cf428d661847341f54d82dfaed1c3a7be12b965f2a532fe645ce3afb44f64736f6c63430008000033",
  "immutableReferences": {},
  "source": "// SPDX-License-Identifier: MIT\npragma solidity >=0.4.21;\n\ncontract DataShare{\n    enum DataSetStatus { invalid, valid }\n\n    uint dataSetIndex;\n    mapping(uint => DataSet) dataSetCollection;       //id\n    mapping(address => uint[]) uperAllUpload;  // => id\n    mapping(address => mapping(uint => bool)) hasDownloaded;    //\n    mapping(address => uint[]) userDownload;    //\n    mapping(address => UserInfo) users;      //\n\n    struct DataSet{\n        uint id;\n        string name;\n        string category;        //\n        string description;     //\n        string uper;            //\n        string dataLink;        //\n        uint downloads;         //\n        uint uploadTime;        //\n        DataSetStatus status;   //\n    }\n\n    struct UserInfo{\n        string name;\n        uint point;\n        bool hasExist;\n    }\n\n    constructor(){\n        dataSetIndex = 0;\n    }\n\n    /**\n      * User \n      * \n      */\n    function setUser(string memory _name) public{\n        UserInfo memory user = UserInfo(_name, 0, true);\n        users[msg.sender] = user;\n    }\n\n    /** \n      *  \n      * \n      */\n    function getSelfInfo() public view returns (string memory, uint, bool){\n        return (users[msg.sender].name, users[msg.sender].point, users[msg.sender].hasExist);\n    }\n\n    /**\n      * \n      * hash\n      */\n    function uploadData(string memory _name, string memory _category, string memory _description, string memory _dataLink, uint _point) public{\n        dataSetIndex++;\n        DataSet memory dataset = DataSet(dataSetIndex, _name, _category, _description, users[msg.sender].name, _dataLink, 0, block.timestamp, DataSetStatus.valid);\n        dataSetCollection[dataSetIndex] = dataset;\n        uperAllUpload[msg.sender].push(dataSetIndex);\n        users[msg.sender].point += _point;\n    }\n    \n    /* id */\n    function checkHasDownload(uint _dataSetId) public view returns (bool){\n        return hasDownloaded[msg.sender][_dataSetId];\n    }\n\n    /**\n      * id\n      * id\n      */\n    function addDownloads(uint _dataSetId) public{\n        dataSetCollection[_dataSetId].downloads++;\n        hasDownloaded[msg.sender][_dataSetId] = true;\n        userDownload[msg.sender].push(_dataSetId);\n    }\n    \n    /**\n      * \n      * id\n      * hash\n      */\n    function getDataSet(uint _dataSetId) public view returns (string memory, string memory, string memory, string memory, string memory, uint, uint, DataSetStatus){\n        DataSet memory dataset = dataSetCollection[_dataSetId];\n        return (dataset.name, dataset.category, dataset.description, dataset.uper, dataset.dataLink, dataset.downloads, dataset.uploadTime, dataset.status);\n    }\n\n    /*  */\n    function getIndex() public view returns (uint){\n        return dataSetIndex;\n    }\n    \n    /* id */\n    function getUserAllUploadId() public view returns (uint[] memory){\n        return uperAllUpload[msg.sender];\n    }\n    \n    /* id */\n    function getUserAllDownloadId() public view returns (uint[] memory){\n        return userDownload[msg.sender];\n    }\n    \n    /*  */\n    function dropData(uint _dataSetId) public{\n        dataSetCollection[_dataSetId].status = DataSetStatus.invalid;\n    }\n}\n",
  "sourcePath": "/home/amar/DAPP/DataShare/contracts/DataShare.sol",
  "compiler": {
    "name": "solc",
    "version": "0.8.0+commit.c7dfd78e.Emscripten.clang"
  },
  "schemaVersion": "3.3.4",
  "updatedAt": "2021-04-04T16:49:33.452Z",
  "networkType": "ethereum",
  "devdoc": {
    "kind": "dev",
    "methods": {},
    "version": 1
  },
  "userdoc": {
    "kind": "user",
    "methods": {
      "addDownloads(uint256)": {
        "notice": "id id"
      },
      "getDataSet(uint256)": {
        "notice": " id hash"
      },
      "getSelfInfo()": {
        "notice": "  "
      },
      "setUser(string)": {
        "notice": "User  "
      },
      "uploadData(string,string,string,string,uint256)": {
        "notice": " hash"
      }
    },
    "version": 1
  }
}