{
  "contractName": "DataShare",
  "abi": [
    {
      "inputs": [],
      "stateMutability": "nonpayable",
      "type": "constructor"
    },
    {
      "inputs": [
        {
          "internalType": "string",
          "name": "_name",
          "type": "string"
        }
      ],
      "name": "setUser",
      "outputs": [],
      "stateMutability": "nonpayable",
      "type": "function"
    },
    {
      "inputs": [],
      "name": "getSelfInfo",
      "outputs": [
        {
          "internalType": "string",
          "name": "",
          "type": "string"
        },
        {
          "internalType": "uint256",
          "name": "",
          "type": "uint256"
        },
        {
          "internalType": "bool",
          "name": "",
          "type": "bool"
        }
      ],
      "stateMutability": "view",
      "type": "function",
      "constant": true
    },
    {
      "inputs": [
        {
          "internalType": "string",
          "name": "_name",
          "type": "string"
        },
        {
          "internalType": "string",
          "name": "_category",
          "type": "string"
        },
        {
          "internalType": "string",
          "name": "_description",
          "type": "string"
        },
        {
          "internalType": "string",
          "name": "_dataLink",
          "type": "string"
        },
        {
          "internalType": "uint256",
          "name": "_point",
          "type": "uint256"
        }
      ],
      "name": "uploadData",
      "outputs": [],
      "stateMutability": "nonpayable",
      "type": "function"
    },
    {
      "inputs": [
        {
          "internalType": "uint256",
          "name": "_dataSetId",
          "type": "uint256"
        }
      ],
      "name": "checkHasDownload",
      "outputs": [
        {
          "internalType": "bool",
          "name": "",
          "type": "bool"
        }
      ],
      "stateMutability": "view",
      "type": "function",
      "constant": true
    },
    {
      "inputs": [
        {
          "internalType": "uint256",
          "name": "_dataSetId",
          "type": "uint256"
        },
        {
          "internalType": "uint256",
          "name": "_point",
          "type": "uint256"
        }
      ],
      "name": "addDownloads",
      "outputs": [],
      "stateMutability": "nonpayable",
      "type": "function"
    },
    {
      "inputs": [
        {
          "internalType": "uint256",
          "name": "_dataSetId",
          "type": "uint256"
        }
      ],
      "name": "getDataSet",
      "outputs": [
        {
          "internalType": "string",
          "name": "",
          "type": "string"
        },
        {
          "internalType": "string",
          "name": "",
          "type": "string"
        },
        {
          "internalType": "string",
          "name": "",
          "type": "string"
        },
        {
          "internalType": "string",
          "name": "",
          "type": "string"
        },
        {
          "internalType": "string",
          "name": "",
          "type": "string"
        },
        {
          "internalType": "uint256",
          "name": "",
          "type": "uint256"
        },
        {
          "internalType": "uint256",
          "name": "",
          "type": "uint256"
        }
      ],
      "stateMutability": "view",
      "type": "function",
      "constant": true
    },
    {
      "inputs": [
        {
          "internalType": "uint256",
          "name": "_dataSetId",
          "type": "uint256"
        }
      ],
      "name": "getDataName",
      "outputs": [
        {
          "internalType": "string",
          "name": "",
          "type": "string"
        }
      ],
      "stateMutability": "view",
      "type": "function",
      "constant": true
    },
    {
      "inputs": [],
      "name": "getIndex",
      "outputs": [
        {
          "internalType": "uint256",
          "name": "",
          "type": "uint256"
        }
      ],
      "stateMutability": "view",
      "type": "function",
      "constant": true
    },
    {
      "inputs": [],
      "name": "getUserAllUploadId",
      "outputs": [
        {
          "internalType": "uint256[]",
          "name": "",
          "type": "uint256[]"
        }
      ],
      "stateMutability": "view",
      "type": "function",
      "constant": true
    },
    {
      "inputs": [],
      "name": "getUserAllDownloadId",
      "outputs": [
        {
          "internalType": "uint256[]",
          "name": "",
          "type": "uint256[]"
        }
      ],
      "stateMutability": "view",
      "type": "function",
      "constant": true
    },
    {
      "inputs": [
        {
          "internalType": "string",
          "name": "_category",
          "type": "string"
        }
      ],
      "name": "getDataIdByCategory",
      "outputs": [
        {
          "internalType": "uint256[]",
          "name": "",
          "type": "uint256[]"
        }
      ],
      "stateMutability": "view",
      "type": "function",
      "constant": true
    }
  ],
  "bytecode": "0x608060405234801561001057600080fd5b5060008055611022806100246000396000f3fe608060405234801561001057600080fd5b50600436106100a95760003560e01c8063bdaac05611610071578063bdaac05614610138578063c56ad1481461015e578063c6642f8a14610166578063d0020fad14610186578063eef2d4ce14610199578063f2f8cfd3146101ac576100a9565b806322cc360c146100ae5780637a0cb9f6146100d75780637d24aff8146100ec5780637e8e77331461010c57806381045ead14610123575b600080fd5b6100c16100bc366004610d8d565b6101b4565b6040516100ce9190610e52565b60405180910390f35b6100ea6100e5366004610da5565b6101d4565b005b6100ff6100fa366004610ca2565b610273565b6040516100ce9190610e0e565b6101146102e3565b6040516100ce93929190610eef565b61012b6103a4565b6040516100ce9190610f19565b61014b610146366004610d8d565b6103aa565b6040516100ce9796959493929190610e77565b6100ff61071a565b610179610174366004610d8d565b61077b565b6040516100ce9190610e5d565b6100ea610194366004610ca2565b610816565b6100ea6101a7366004610cdd565b6108bc565b6100ff610b29565b336000908152600360209081526040808320938352929052205460ff1690565b60008281526001602052604081206007018054916101f183610fa5565b90915550503360008181526003602090815260408083208684528252808320805460ff191660019081179091559383526004825280832080548086018255908452828420018690558583528382528083208401546001600160a01b0316835260059091528120909101805483929061026a908490610f22565b90915550505050565b60606006826040516102859190610df2565b90815260408051918290036020908101832080548083028501830190935282845291908301828280156102d757602002820191906000526020600020905b8154815260200190600101908083116102c3575b50505050509050919050565b3360009081526005602052604081206001810154600282015482546060949384939092909160ff90911690839061031990610f6a565b80601f016020809104026020016040519081016040528092919081815260200182805461034590610f6a565b80156103925780601f1061036757610100808354040283529160200191610392565b820191906000526020600020905b81548152906001019060200180831161037557829003601f168201915b50505050509250925092509250909192565b60005490565b600081815260016020818152604080842081516101208101835281548152938101546001600160a01b0316928401929092526002820180546060958695869586958695939485948594939284019161040190610f6a565b80601f016020809104026020016040519081016040528092919081815260200182805461042d90610f6a565b801561047a5780601f1061044f5761010080835404028352916020019161047a565b820191906000526020600020905b81548152906001019060200180831161045d57829003601f168201915b5050505050815260200160038201805461049390610f6a565b80601f01602080910402602001604051908101604052809291908181526020018280546104bf90610f6a565b801561050c5780601f106104e15761010080835404028352916020019161050c565b820191906000526020600020905b8154815290600101906020018083116104ef57829003601f168201915b5050505050815260200160048201805461052590610f6a565b80601f016020809104026020016040519081016040528092919081815260200182805461055190610f6a565b801561059e5780601f106105735761010080835404028352916020019161059e565b820191906000526020600020905b81548152906001019060200180831161058157829003601f168201915b505050505081526020016005820180546105b790610f6a565b80601f01602080910402602001604051908101604052809291908181526020018280546105e390610f6a565b80156106305780601f1061060557610100808354040283529160200191610630565b820191906000526020600020905b81548152906001019060200180831161061357829003601f168201915b5050505050815260200160068201805461064990610f6a565b80601f016020809104026020016040519081016040528092919081815260200182805461067590610f6a565b80156106c25780601f10610697576101008083540402835291602001916106c2565b820191906000526020600020905b8154815290600101906020018083116106a557829003601f168201915b5050509183525050600782015460208201526008909101546040918201528101516060820151608083015160a084015160c085015160e086015161010090960151949f939e50919c509a509850919650945092505050565b3360009081526004602090815260409182902080548351818402810184019094528084526060939283018282801561077157602002820191906000526020600020905b81548152602001906001019080831161075d575b5050505050905090565b600081815260016020526040902060020180546060919061079b90610f6a565b80601f01602080910402602001604051908101604052809291908181526020018280546107c790610f6a565b80156102d75780601f106107e9576101008083540402835291602001916102d7565b820191906000526020600020905b8154815290600101906020018083116107f75750939695505050505050565b3360009081526005602052604090206002015460ff161561085757336000908152600560209081526040909120825161085192840190610b88565b506108b9565b60408051606081018252828152600060208083018290526001838501523382526005815292902081518051929391926108939284920190610b88565b50602082015160018201556040909101516002909101805460ff19169115159190911790555b50565b6000805490806108cb83610fa5565b909155505060408051610120810182526000805482523360208084018290528385018a9052606084018990526080840188905290825260059052918220805460a08301919061091990610f6a565b80601f016020809104026020016040519081016040528092919081815260200182805461094590610f6a565b80156109925780601f1061096757610100808354040283529160200191610992565b820191906000526020600020905b81548152906001019060200180831161097557829003601f168201915b50505091835250506020808201869052600060408084018290524260609094019390935280548152600180835290839020845181558483015191810180546001600160a01b0319166001600160a01b03909316929092179091559183015180519394508493610a079260028501920190610b88565b5060608201518051610a23916003840191602090910190610b88565b5060808201518051610a3f916004840191602090910190610b88565b5060a08201518051610a5b916005840191602090910190610b88565b5060c08201518051610a77916006840191602090910190610b88565b5060e082015181600701556101008201518160080155905050600685604051610aa09190610df2565b908152604080516020928190038301902060008054825460018082018555938352858320015533808252600285528382208254815480860183559184528684209091015580825260038552838220825483528552838220805460ff19168417905581526005909352908220018054849290610b1c908490610f22565b9091555050505050505050565b33600090815260026020908152604091829020805483518184028101840190945280845260609392830182828015610771576020028201919060005260206000209081548152602001906001019080831161075d575050505050905090565b828054610b9490610f6a565b90600052602060002090601f016020900481019282610bb65760008555610bfc565b82601f10610bcf57805160ff1916838001178555610bfc565b82800160010185558215610bfc579182015b82811115610bfc578251825591602001919060010190610be1565b50610c08929150610c0c565b5090565b5b80821115610c085760008155600101610c0d565b600082601f830112610c31578081fd5b813567ffffffffffffffff80821115610c4c57610c4c610fd6565b604051601f8301601f191681016020018281118282101715610c7057610c70610fd6565b604052828152848301602001861015610c87578384fd5b82602086016020830137918201602001929092529392505050565b600060208284031215610cb3578081fd5b813567ffffffffffffffff811115610cc9578182fd5b610cd584828501610c21565b949350505050565b600080600080600060a08688031215610cf4578081fd5b853567ffffffffffffffff80821115610d0b578283fd5b610d1789838a01610c21565b96506020880135915080821115610d2c578283fd5b610d3889838a01610c21565b95506040880135915080821115610d4d578283fd5b610d5989838a01610c21565b94506060880135915080821115610d6e578283fd5b50610d7b88828901610c21565b95989497509295608001359392505050565b600060208284031215610d9e578081fd5b5035919050565b60008060408385031215610db7578182fd5b50508035926020909101359150565b60008151808452610dde816020860160208601610f3a565b601f01601f19169290920160200192915050565b60008251610e04818460208701610f3a565b9190910192915050565b6020808252825182820181905260009190848201906040850190845b81811015610e4657835183529284019291840191600101610e2a565b50909695505050505050565b901515815260200190565b600060208252610e706020830184610dc6565b9392505050565b600060e08252610e8a60e083018a610dc6565b8281036020840152610e9c818a610dc6565b90508281036040840152610eb08189610dc6565b90508281036060840152610ec48188610dc6565b90508281036080840152610ed88187610dc6565b60a0840195909552505060c0015295945050505050565b600060608252610f026060830186610dc6565b602083019490945250901515604090910152919050565b90815260200190565b60008219821115610f3557610f35610fc0565b500190565b60005b83811015610f55578181015183820152602001610f3d565b83811115610f64576000848401525b50505050565b600281046001821680610f7e57607f821691505b60208210811415610f9f57634e487b7160e01b600052602260045260246000fd5b50919050565b6000600019821415610fb957610fb9610fc0565b5060010190565b634e487b7160e01b600052601160045260246000fd5b634e487b7160e01b600052604160045260246000fdfea26469706673582212208c55aa15f5890689a3e8acdbb4e960affcd1ce1728214559ce885893c1d3bd8a64736f6c63430008000033",
  "immutableReferences": {},
  "source": "// SPDX-License-Identifier: MIT\npragma solidity >=0.4.21;\n\ncontract DataShare{\n    enum UserWithTheData { independent, downloaded, evaluated }\n\n    uint dataSetIndex;\n    mapping(uint => DataSet) dataSetCollection;       //id\n    mapping(address => uint[]) uperAllUpload;  // => id\n    mapping(address => mapping(uint => bool)) hasDownloaded;    //\n    mapping(address => uint[]) userDownload;    //\n    mapping(address => UserInfo) users;      //\n    mapping(string => uint[]) dataByCategory;       //\n\n    struct DataSet{\n        uint id;\n        address addr;\n        string name;\n        string category;        //\n        string description;     //\n        string uper;            //\n        string dataLink;        //\n        uint downloads;         //\n        uint uploadTime;        //\n    }\n\n    struct UserInfo{\n        string name;\n        uint point;\n        bool hasExist;\n    }\n\n    constructor(){\n        dataSetIndex = 0;\n    }\n\n    /**\n      * User \n      * \n      */\n    function setUser(string memory _name) public{\n        if(users[msg.sender].hasExist){\n            users[msg.sender].name = _name;\n        }\n        else{\n            users[msg.sender] = UserInfo(_name, 0, true);\n        }\n    }\n\n    /** \n      *  \n      * \n      */\n    function getSelfInfo() public view returns (string memory, uint, bool){\n        return (users[msg.sender].name, users[msg.sender].point, users[msg.sender].hasExist);\n    }\n\n    /**\n      * \n      * hash\n      */\n    function uploadData(string memory _name, string memory _category, string memory _description, string memory _dataLink, uint _point) public{\n        dataSetIndex++;\n        DataSet memory dataset = DataSet(dataSetIndex, msg.sender, _name, _category, _description, users[msg.sender].name, _dataLink, 0, block.timestamp);\n        dataSetCollection[dataSetIndex] = dataset;\n        dataByCategory[_category].push(dataSetIndex);\n        uperAllUpload[msg.sender].push(dataSetIndex);\n        hasDownloaded[msg.sender][dataSetIndex] = true;\n        users[msg.sender].point += _point;\n    }\n    \n    /* id */\n    function checkHasDownload(uint _dataSetId) public view returns (bool){\n        return hasDownloaded[msg.sender][_dataSetId];\n    }\n\n    /**\n      * id\n      * id\n      */\n    function addDownloads(uint _dataSetId, uint _point) public{\n        dataSetCollection[_dataSetId].downloads++;\n        hasDownloaded[msg.sender][_dataSetId] = true;\n        userDownload[msg.sender].push(_dataSetId);\n        users[dataSetCollection[_dataSetId].addr].point += _point;\n    }\n    \n    /**\n      * \n      * id\n      * hash\n      */\n    function getDataSet(uint _dataSetId) public view returns (string memory, string memory, string memory, string memory, string memory, uint, uint){\n        DataSet memory dataset = dataSetCollection[_dataSetId];\n        return (dataset.name, dataset.category, dataset.description, dataset.uper, dataset.dataLink, dataset.downloads, dataset.uploadTime);\n    }\n    \n    /*  */\n    function getDataName(uint _dataSetId) public view returns (string memory){\n        return dataSetCollection[_dataSetId].name;\n    }\n\n    /*  */\n    function getIndex() public view returns (uint){\n        return dataSetIndex;\n    }\n    \n    /* id */\n    function getUserAllUploadId() public view returns (uint[] memory){\n        return uperAllUpload[msg.sender];\n    }\n    \n    /* id */\n    function getUserAllDownloadId() public view returns (uint[] memory){\n        return userDownload[msg.sender];\n    }\n    \n    function getDataIdByCategory(string memory _category) public view returns (uint[] memory){\n        return dataByCategory[_category];\n    }\n}\n",
  "sourcePath": "/home/amar/DAPP/DataShare/contracts/DataShare.sol",
  "compiler": {
    "name": "solc",
    "version": "0.8.0+commit.c7dfd78e.Emscripten.clang"
  },
  "schemaVersion": "3.3.4",
  "updatedAt": "2021-04-08T04:47:00.423Z",
  "networkType": "ethereum",
  "devdoc": {
    "kind": "dev",
    "methods": {},
    "version": 1
  },
  "userdoc": {
    "kind": "user",
    "methods": {
      "addDownloads(uint256,uint256)": {
        "notice": "id id"
      },
      "getDataSet(uint256)": {
        "notice": " id hash"
      },
      "getSelfInfo()": {
        "notice": "  "
      },
      "setUser(string)": {
        "notice": "User  "
      },
      "uploadData(string,string,string,string,uint256)": {
        "notice": " hash"
      }
    },
    "version": 1
  }
}